:100000000C94E5000C940D010C940D010C940D0161
:100010000C940D010C940D010C940D010C940D0128
:100020000C940D010C940D010C940D010C940D0118
:100030000C940D010C940D010C940D010C940D0108
:100040000C94A5030C940D010C9415040C94EF036F
:100050000C940D010C940D010C940D010C940D01E8
:100060000C940D010C940D0100407A10F35A00A07D
:10007000724E18090010A5D4E80000E87648170071
:1000800000E40B54020000CA9A3B000000E1F505B1
:10009000000080969800000040420F000000A086FB
:1000A00001000000102700000000E803000000002D
:1000B0006400000000000A000000000001000000D1
:1000C00000002C76D888DC674F0823DFC1DFAE59EB
:1000D000E1B1B796E5E3E453C63AE651997696E87E
:1000E000E6C28426EB898C9B62ED407C6FFCEFBC02
:1000F0009C9F40F2BAA56FA5F490055A2AF75C932D
:100100006B6CF9676DC11BFCE0E40D47FEF520E662
:10011000B500D0ED902E0300943577050080841E45
:10012000080000204E0A000000C80C333333330FA0
:10013000986E12831141EF8D2114893BE65516CF3D
:10014000FEE6DB18D1844B381BF77C1D901DA4BB49
:10015000E424203284725E228100C9F124ECA1E5FE
:100160003D276364696E6F70737578585B0000009B
:100170000000240027002A000000000025002800BD
:100180002B0000000008000201000003040700002B
:1001900000000000000000000000230026002900ED
:1001A000040404040404040402020202020203031D
:1001B0000303030301020408102040800102040825
:1001C00010200102040810208C0411241FBECFEF60
:1001D000D8E0DEBFCDBF11E0A0E0B1E0E2E3F3E2A2
:1001E00002C005900D92AA33B107D9F722E0AAE325
:1001F000B1E001C01D92A330B207E1F710E0C5EEF7
:10020000D0E004C02197FE010E947B0AC43ED107C2
:10021000C9F70E94CA040C9497110C94000090E056
:10022000FC01EE57FE4F2491FC01EC54FE4F34913B
:10023000FC01E056FE4FE491EE2309F43CC022237A
:1002400039F1233091F038F42130A9F0223001F552
:1002500084B58F7D12C0273091F02830A1F0243072
:10026000B9F4809180008F7D03C0809180008F77EA
:10027000809380000DC084B58F7784BD09C08091C4
:10028000B0008F7703C08091B0008F7D8093B00065
:10029000F0E0EE0FFF1FE858FE4FA591B4919FB715
:1002A000F894611104C08C913095382302C0EC9110
:1002B0003E2B3C939FBF0895CF93DF9390E0FC01CA
:1002C000EC54FE4F2491FC01E056FE4F84918823AC
:1002D00061F190E0880F991FFC01E259FE4FC59132
:1002E000D491FC01E858FE4FA591B491611109C069
:1002F0009FB7F8948881209582238883EC912E23E0
:100300000BC0623061F49FB7F8948881322F30952A
:1003100083238883EC912E2B2C939FBF06C08FB72D
:10032000F894E8812E2B28838FBFDF91CF91089519
:100330003FB7F8948091430190914401A091450109
:10034000B091460126B5A89B05C02F3F19F0019634
:10035000A11DB11D3FBFBA2FA92F982F8827820F4B
:10036000911DA11DB11DBC01CD0142E0660F771F9B
:10037000881F991F4A95D1F708958F929F92AF9247
:10038000BF92CF92DF92EF92FF926B017C010E94AD
:1003900098014B015C01C114D104E104F104F1F0B6
:1003A0000E949801DC01CB0188199909AA09BB09AF
:1003B000883E9340A105B10570F321E0C21AD1082F
:1003C000E108F10888EE880E83E0981EA11CB11C9C
:1003D000C114D104E104F10419F7DDCFFF90EF90CF
:1003E000DF90CF90BF90AF909F908F900895CF9265
:1003F000DF92EF92FF920F931F93CF93DF936C01E5
:100400007A018B01C0E0D0E0CE15DF0581F0D80184
:100410006D918D01D601ED91FC910190F081E02D5F
:10042000C6010995892B11F02196EECF7E01C701F7
:10043000DF91CF911F910F91FF90EF90DF90CF90C0
:100440000895089580E090E00895FC01538D448D57
:10045000252F30E0842F90E0821B930B541710F06F
:10046000CF96089501970895FC01918D828D98177C
:1004700061F0828DDF01A80FB11D5D968C91928D88
:100480009F5F9F73928F90E008958FEF9FEF089585
:10049000FC01918D828D981731F0828DE80FF11D4E
:1004A000858D90E008958FEF9FEF0895FC01918D69
:1004B000228D892F90E0805C9F4F821B91098F7362
:1004C0009927089587E491E00E94560221E0892B44
:1004D00009F420E0822F0895FC01848DDF01A80F2C
:1004E000B11DA35ABF4F2C91848D90E001968F735C
:1004F0009927848FA689B7892C93A089B1898C917B
:10050000837080648C93938D848D981306C00288C9
:10051000F389E02D80818F7D80830895EF92FF9293
:100520000F931F93CF93DF93EC0181E0888F9B8D16
:100530008C8D981305C0E889F989808185FD26C0D6
:10054000F62E0B8D10E00F5F1F4F0F731127E02E5B
:100550008C8DE8120CC00FB607FCFACFE889F98938
:10056000808185FFF5CFCE010E946C02F1CF8B8D8B
:10057000FE01E80FF11DE35AFF4FF0829FB7F89498
:100580000B8FEA89FB89808180620AC09FB7F8944B
:10059000EE89FF896083E889F989808183708064AE
:1005A00080839FBF81E090E0DF91CF911F910F91F9
:1005B000FF90EF900895CF93DF93EC01888D88230F
:1005C000C9F0EA89FB89808185FD05C0A889B989C0
:1005D0008C9186FD0FC00FB607FCF5CF808185FF9B
:1005E000F2CFA889B9898C9185FFEDCFCE010E9409
:1005F0006C02E7CFDF91CF91089580E090E0892BE6
:1006000029F00E94620281110C9400000895FF926B
:100610000F931F93CF93DF93CDB7DEB764970FB6D9
:10062000F894DEBF0FBECDBF082FF92E142F61E066
:1006300082E00E940F014FEF410FE02FFF2D10E0ED
:1006400027E0415070F08191182788E0912F990F91
:1006500017FF03C0192F122701C0192F8150B1F7BE
:10066000F0CF6CE370E080E090E00E94BD01FF926B
:100670000F931F921F921F921F931F928DE48F93CF
:100680001F9281E08F9384E291E09F938F938E017C
:100690000F5F1F4F1F930F930E94B00BF801019043
:1006A0000020E9F73197AF01401B510BB80187E4F7
:1006B00091E00E94F7016CE370E080E090E00E941E
:1006C000BD0160E082E00E940F010FB6F894DEBF2A
:1006D0000FBECDBF64960FB6F894DEBF0FBECDBF80
:1006E000DF91CF911F910F91FF9008950F931F936A
:1006F00090E0FC01EC54FE4F6491FC01E056FE4F8B
:10070000E491F0E0EE0FFF1FEA56FE4F85919491C1
:1007100008E512E020E030E0462F0E944704611512
:1007200071058105910549F0DC01CB010196A11D00
:10073000B11DBC01CD019F7003C060E070E0CB0132
:100740001F910F9108950E94A20B1F920F920FB656
:100750000F9211242F933F938F939F93AF93BF9347
:1007600080913F0190914001A0914101B0914201DF
:1007700030913E0123E0230F2D3720F40196A11D77
:10078000B11D05C026E8230F0296A11DB11D2093BF
:100790003E0180933F0190934001A0934101B093AB
:1007A00042018091430190914401A0914501B09193
:1007B00046010196A11DB11D809343019093440110
:1007C000A0934501B0934601BF91AF919F918F9146
:1007D0003F912F910F900FBE0F901F9018951F9271
:1007E0000F920FB60F9211242F933F934F935F9365
:1007F0006F937F938F939F93AF93BF93EF93FF93E9
:1008000087E491E00E946C02FF91EF91BF91AF915C
:100810009F918F917F916F915F914F913F912F9118
:100820000F900FBE0F901F9018951F920F920FB64A
:100830000F9211242F938F939F93EF93FF93E09147
:100840005701F09158018081E0915D01F0915E01C6
:1008500082FD12C09081809160018F5F8F73209123
:100860006101821751F0E0916001F0E0E95BFE4F19
:10087000958F8093600101C08081FF91EF919F91DE
:100880008F912F910F900FBE0F901F901895CF92C0
:10089000DF92EF92FF920F931F93E82FF92F05C07D
:1008A000015011092109310961F1908196239417B2
:1008B000B9F305C0015011092109310911F19081E5
:1008C00096239413F7CFC12CD12CE12CF12C0AC024
:1008D0008FEFC81AD80AE80AF80A0C151D052E056C
:1008E0003F0579F080818623841791F36C2D7D2D4F
:1008F0008E2D9F2D1F910F91FF90EF90DF90CF9045
:10090000089560E070E080E090E01F910F91FF900B
:10091000EF90DF90CF900895E7E4F1E01382128228
:1009200088EE93E0A0E0B0E084839583A683B7834C
:1009300086E191E09183808385EC90E095878487C0
:1009400084EC90E09787868780EC90E0918B808B99
:1009500081EC90E0938B828B82EC90E0958B848B82
:1009600086EC90E0978B868B118E128E138E148EF0
:1009700083E08093F701E4EEF1E087E08083118269
:1009800012821382148215821682178210861186B3
:1009900012860895CF93DF9300D000D01F92CDB779
:1009A000DEB7789484B5826084BD84B5816084BDEF
:1009B00085B5826085BD85B5816085BD80916E00FD
:1009C000816080936E00109281008091810082602E
:1009D000809381008091810081608093810080916B
:1009E00080008160809380008091B100846080935A
:1009F000B1008091B00081608093B00080917A0056
:100A0000846080937A0080917A00826080937A007B
:100A100080917A00816080937A0080917A0080686A
:100A200080937A001092C100E0915701F091580133
:100A300082E08083E0915301F09154011082E091B3
:100A40005501F09156018AE8808310925F01E09190
:100A50005B01F0915C0186E08083E0915901F091A7
:100A60005A01808180618083E0915901F0915A019F
:100A7000808188608083E0915901F0915A018081E2
:100A800080688083E0915901F0915A0180818F7DC7
:100A9000808361E082E00E945C0160E082E00E946D
:100AA0000F014BE0742E56E1852ECE0101967C019C
:100AB00062E3A62E61E0B62E1092FD011092FC01B9
:100AC0001092FB011092FA011092F90161E08091FD
:100AD000F7010E945C0160E08091F7010E940F0124
:100AE00069E170E080E090E00E94BD0160E08091EB
:100AF000F7010E945C018091F7010E947603672B49
:100B0000682B692B09F49DC000E010E08091F7018B
:100B10000E9476036115710509F493C0F80133E072
:100B2000F595E7953A95E1F7E151FE4F8285982FCB
:100B3000990F81E0633371050CF480E0890F82879F
:100B40000F5F1F4F0832110509F78091F7010E94CE
:100B50007603672B682B692B09F073C0E091F901CC
:100B60008E2F90E0F091FA016F2F70E09090FB01D2
:100B7000092D10E0C090FC01D12C9C01260F371FDD
:100B8000200F311F2C0D3D1D33274091FD0150E0FA
:100B90002417350709F055C0E43018F423E029156F
:100BA00018F47092F80107C0EE2319F0F11101C09A
:100BB00090FC8092F8016090F8012BE0621611F031
:100BC000982F8827680F791F072E000C880B990B28
:100BD0000E9482092BE0621609F4FAC02DEC3CEC6D
:100BE0004CEC5DE30E94BD096093EF017093F0014E
:100BF0008093F1019093F2018BE0681629F0092DA2
:100C00000F7710E0102F0027B8016C0D7D1D072E07
:100C1000000C880B990B0E9482092BE0621609F4E4
:100C2000DCC097FCDFC02DEC3CEC4CEC5DE30E949B
:100C3000BD096093F3017093F4018093F5019093E3
:100C4000F60168EE73E080E090E00E94BD01109232
:100C50003D0110923C0187E491E00E945602892BED
:100C600009F4ADC082E390E00E94810A90933B01B9
:100C700080933A0165E070E080E090E00E94BD0161
:100C800087E491E00E945602892B09F441C087E471
:100C900091E00E94340240913A0150913B01209131
:100CA0003C0130913D018B3339F5FA01E20FF31F1E
:100CB000108210923D0110923C01FF92EF92BF9280
:100CC000AF925F934F930E94D20B0F900F900F90B3
:100CD0000F900F900F9089819A818D34910581F248
:100CE00087E491E00E945602892B09F468C087E4EA
:100CF00091E00E943402F4CFB9016F5F7F4F70938F
:100D00003D0160933C01FA01E20FF31F8083B8CFED
:100D100020913C0130913D01121613060CF04FC09A
:100D200080913A0190913B01A9014F5F5F4F509331
:100D30003D0140933C01FC01E20FF31F10821416A9
:100D40001506ECF565E371E00E94A70B892BB9F558
:100D500046E050E060E070E08CE091E00E94070324
:100D60006091EF017091F0018091F1019091F20199
:100D7000870121E044E00E94F70645E050E060E092
:100D800070E0C7010E94070346E050E060E070E0B9
:100D900086E091E00E9407036091F3017091F401F5
:100DA0008091F5019091F60121E044E00E94F70660
:100DB00045E050E060E070E0C7010E9407038091C9
:100DC0003A0190913B010E94190B0E94FD0274CEE2
:100DD00020E030E040E85FE305CF20E030E040E88D
:100DE0005FE325CF2DEC3CEC4CEC5DEB20CFEF929C
:100DF0000F931F93CF93DF93E80147FD02C034E0C8
:100E000001C034E1042E000C550B57FF03C051956F
:100E100041955109E32E022F242FAE010E9417079E
:100E2000CE01DF91CF911F910F91EF900895A9E02E
:100E3000B0E0EDE1F7E00C944F096A01122FB02EFB
:100E40002BE3201720F0FF24F394F00E02C02CE3D4
:100E5000F22E0F2D27E0AE014F5F5F4F0E94710809
:100E6000BC014981842F8970813031F0E1FC06C0DA
:100E7000E0FE06C090E205C09DE203C09BE201C017
:100E800090E05E2D507143FF3CC0911102C083E0A1
:100E900001C084E0811718F4212F281B01C020E035
:100EA00051110BC0F601822F30E2882319F03193E3
:100EB0008150FBCFC20ED11C20E0992329F0D6012E
:100EC0009C93F60131966F01C6010396E2FE0AC0BB
:100ED0003EE4D6013C9341E411964C93119712964F
:100EE0003C9306C03EE6F601308341E641833283FF
:100EF000FC01322F40E2332309F442C041933150C8
:100F0000FACF42FF44C0911102C083E001C084E0E7
:100F1000811718F4212F281B01C020E051110BC0AC
:100F2000F601822F30E2882319F031938150FBCFF4
:100F3000C20ED11C20E0992329F0D6019C93F60122
:100F400031966F01C6010396E2FE0BC039E4D6016B
:100F50003C933EE411963C93119736E412963C93F1
:100F600007C039E6F60130833EE6318336E6328348
:100F7000FC01322F40E2332319F041933150FBCF73
:100F8000FC01E20FF11D10828EEF9FEFA6C021E061
:100F900030E0911102C020E030E0161617061CF474
:100FA000FB01319602C0E1E0F0E02E0F3F1FBB20B5
:100FB00021F0EB2DF0E0319602C0E0E0F0E02E0FE2
:100FC0003F1FE12FF0E02E173F071CF4121B212FCB
:100FD00001C020E08E2D887159F4F601822F30E295
:100FE000882319F031938150FBCFC20ED11C20E031
:100FF000992329F0D6019C93F60131966F01511186
:101000000BC0F601822F90E3882319F09193815051
:10101000FBCFC20ED11C20E00F2D060F9A81342F7A
:10102000307144FF03C0913309F40150101624F4C9
:10103000093018F008E001C001E0AB0177FF02C001
:1010400040E050E0FB01E41BF50BA1E0B0E0AC0F89
:10105000BD1FEA0FFB1F8EE2A82E4B01801A9108DC
:101060000B2D10E01195019511094F3FBFEF5B0764
:1010700021F4D601AC9211966D01641775072CF01E
:101080008416950614F4818101C080E34150510912
:101090003196D60111967D014017510724F0D601F3
:1010A0008C936701E2CF6417750739F4963320F407
:1010B000953319F4311101C081E3F6018083F70102
:1010C000822F90E2882319F091938150FBCFF70192
:1010D000E20FF11D108280E090E02996ECE00C9484
:1010E0006B09283008F027E03327DA01990F311D0A
:1010F00087FD916000966105710539F432602E5FBD
:101100003D9330E32A95E1F708959F3F30F0803812
:101110007105610509F03C5F3C5F3D93913008F03B
:101120008068911DDF93CF931F930F93FF92EF92EF
:10113000192F987F9695E92F96959695E90FFF2799
:10114000EE53FF4F99273327EE24FF24A701E70131
:1011500005900894079428F4360FE71EF81E491FDF
:10116000511D660F771F881F991F0694A1F70590E0
:10117000079428F4E70EF81E491F561FC11D770F6C
:10118000881F991F661F0694A1F70590079428F4FD
:10119000F80E491F561FC71FD11D880F991F661FC4
:1011A000771F0694A1F70590079420F4490F561F66
:1011B000C71FD81F990F661F771F881F0694A9F7AE
:1011C00084911095177041F0D695C795579547951E
:1011D000F794E7941A95C1F7E8E6F0E06894159063
:1011E000159135916591959105907FE27395E11880
:1011F000F10A430B560BC90BD009C0F7E10CF11EE5
:10120000431F561FC91FD01D7EF4703311F48A95F9
:10121000E6CFE894015030F0080F0AF400270217D7
:1012200008F4202F2395022F7A3328F079E37D9359
:101230002A95E9F710C07D932A9589F6069497952B
:101240006795379517951794E118F10A430B560BDC
:10125000C90BD00998F023957E9173957A3308F0E5
:1012600070E37C932013B8F77E9170617D9330F02A
:10127000839571E37D9370E32A95E1F71124EF9054
:10128000FF900F911F91CF91DF91992787FD909546
:1012900008952F923F924F925F926F927F928F921A
:1012A0009F92AF92BF92CF92DF92EF92FF920F93F5
:1012B0001F93CF93DF93CDB7DEB7CA1BDB0B0FB6FF
:1012C000F894DEBF0FBECDBF09942A8839884888BC
:1012D0005F846E847D848C849B84AA84B984C88452
:1012E000DF80EE80FD800C811B81AA81B981CE0F49
:1012F000D11D0FB6F894DEBF0FBECDBFED0108952E
:10130000E89409C097FB3EF490958095709561959F
:101310007F4F8F4F9F4F9923A9F0F92F96E9BB2755
:101320009395F695879577956795B795F111F8CFD1
:10133000FAF4BB0F11F460FF1BC06F5F7F4F8F4F3C
:101340009F4F16C0882311F096E911C0772321F032
:101350009EE8872F762F05C0662371F096E8862FCA
:1013600070E060E02AF09A95660F771F881FDAF721
:10137000880F9695879597F908950E94D0090C9447
:10138000410A0E94330A38F00E943A0A20F095235D
:1013900011F00C942A0A0C94300A11240C94750A4A
:1013A0000E94520A70F3959FC1F3950F50E0551FAC
:1013B000629FF001729FBB27F00DB11D639FAA27AA
:1013C000F00DB11DAA1F649F6627B00DA11D661FF9
:1013D000829F2227B00DA11D621F739FB00DA11D1A
:1013E000621F839FA00D611D221F749F3327A00DD4
:1013F000611D231F849F600D211D822F762F6A2F70
:1014000011249F5750409AF0F1F088234AF0EE0FD4
:10141000FF1FBB1F661F771F881F91505040A9F701
:101420009E3F510580F00C942A0A0C94750A5F3F88
:10143000E4F3983ED4F3869577956795B795F7953D
:10144000E7959F5FC1F7FE2B880F911D96958795B5
:1014500097F9089597F99F6780E870E060E0089534
:101460009FEF80EC089500240A94161617061806BC
:101470000906089500240A94121613061406050698
:101480000895092E0394000C11F4882352F0BB0F29
:1014900040F4BF2B11F460FF04C06F5F7F4F8F4F8C
:1014A0009F4F089557FD9058440F551F59F05F3FC7
:1014B00071F04795880F97FB991F61F09F3F79F076
:1014C00087950895121613061406551FF2CF4695F8
:1014D000F1DF08C0161617061806991FF1CF86957A
:1014E0007105610508940895E894BB27662777275E
:1014F000CB0197F90895EE0FFF1F0590F491E02DB1
:1015000009940F931F93CF93DF938230910510F4CA
:1015100082E090E0E0910102F091020220E030E0F0
:10152000A0E0B0E0309719F1408151810281138130
:1015300048175907C8F08417950769F4109731F0D8
:1015400012960C93129713961C9327C000930102D6
:101550001093020222C02115310519F042175307DA
:1015600018F49A01BD01EF01DF01F801DBCF21156D
:101570003105F9F0281B390B2430310580F48A81BC
:101580009B816115710521F0FB019383828304C067
:101590009093020280930102FE01329644C0FE0144
:1015A000E20FF31F819391932250310939832883ED
:1015B0003AC02091FF0130910002232B41F4209189
:1015C000020130910301309300022093FF0120912A
:1015D0000001309101012115310541F42DB73EB7CD
:1015E0004091040150910501241B350BE091FF014E
:1015F000F0910002E217F307A0F42E1B3F0B28170F
:10160000390778F0AC014E5F5F4F2417350748F07B
:101610004E0F5F1F509300024093FF0181939193FF
:1016200002C0E0E0F0E0CF01DF91CF911F910F9178
:101630000895CF93DF93009709F481C0FC0132979E
:1016400013821282A0910102B0910202109781F4DC
:1016500020813181820F931F2091FF013091000280
:101660002817390751F5F0930002E093FF0167C096
:10167000ED0120E030E0CE17DF0740F44A815B81C6
:101680009E0141155105F1F0EA01F5CFD383C283E4
:1016900040815181840F951FC817D90759F488815B
:1016A0009981840F951F0296918380838A819B8103
:1016B000938382832115310529F4F0930202E0938C
:1016C00001023DC0E901FB83EA8349915991C40FAE
:1016D000D51FEC17FD0761F480819181840F951F60
:1016E0000296E90199838883828193819B838A830F
:1016F000E0E0F0E012968D919C911397009719F01D
:10170000FD01DC01F7CF8D919C9111979D012E5F1A
:101710003F4F820F931F2091FF0130910002281745
:10172000390769F4309729F41092020210920102ED
:1017300002C013821282B0930002A093FF01DF91D6
:10174000CF91089581E090E0F8940C949711FB01FB
:10175000DC018D91019080190110D9F3990B089546
:10176000AEE0B0E0E6EBFBE00C9457090D891E8972
:1017700086E08C831A8309838FEF9FE79E838D8396
:10178000AE01475E5F4F6F89788DCE0101960E9452
:10179000EB0BEF81F885E00FF11F10822E96E4E04D
:1017A0000C947309AEE0B0E0E8EDFBE00C9459094D
:1017B00085E08C838B899C899A838983AE01495EFD
:1017C0005F4F6D897E89CE0101960E94680F2E962B
:1017D000E2E00C947509ABE0B0E0E1EFFBE00C94C3
:1017E00049096C017B018A01FC0117821682838101
:1017F00081FFCCC1CE0101963C01F6019381F70136
:1018000093FD859193FF81917F01882309F4BAC1EB
:10181000853239F493FD859193FF81917F01853263
:1018200029F4B60190E00E94E110E7CF912C212C21
:10183000312CFFE1F315D8F08B3279F038F4803297
:1018400079F08332A1F4232D20611DC08D3261F027
:10185000803369F4232D216016C0832D8260382ED9
:10186000E32DE4603E2E2AC0F32DF8601DC037FC46
:101870002DC020ED280F2A3040F08E32B9F436FC0E
:1018800081C1232D2064322E19C036FE06C08AE0A5
:10189000989E200D1124922E11C0EAE02E9E200D5C
:1018A0001124222EF32DF0623F2E08C08C3621F435
:1018B000832D8068382E02C0883641F4F70193FDED
:1018C000859193FF81917F018111B3CF982F9F7DE7
:1018D0009554933028F40C5F1F4F9FE399830DC0FC
:1018E000833631F0833771F0833509F059C021C058
:1018F000F801808189830E5F1F4F88248394912C87
:10190000530113C02801F2E04F0E511CF801A080D2
:10191000B18036FE03C0692D70E002C06FEF7FEF2B
:10192000C5010E9498104C018201F32DFF773F2ED4
:1019300016C0280122E0420E511CF801A080B1809F
:1019400036FE03C0692D70E002C06FEF7FEFC50166
:101950000E948D104C01F32DF0683F2E820133FC64
:101960001BC0822D90E088169906B0F4B60180E283
:1019700090E00E94E1102A94F4CFF50137FC8591A4
:1019800037FE81915F01B60190E00E94E1102110C5
:101990002A9421E0821A91088114910471F7E8C019
:1019A000843611F0893641F5F80137FE07C06081B1
:1019B0007181828193810C5F1F4F08C060817181AA
:1019C000072E000C880B990B0E5F1F4FF32DFF762F
:1019D0003F2E97FF09C090958095709561957F4F38
:1019E0008F4F9F4FF0683F2E2AE030E0A3010E9406
:1019F0003611882E861845C0853731F4232D2F7E69
:101A0000B22E2AE030E025C0932D997FB92E8F3673
:101A1000C1F018F4883579F0B5C0803719F08837EF
:101A200021F0B0C0E92FE061BE2EB4FE0DC0FB2D49
:101A3000F460BF2E09C034FE0AC0292F2660B22EE2
:101A400006C028E030E005C020E130E002C020E11F
:101A500032E0F801B7FE07C0608171818281938115
:101A60000C5F1F4F06C06081718180E090E00E5FC7
:101A70001F4FA3010E943611882E8618FB2DFF7779
:101A80003F2E36FE0DC0232D2E7FA22E891458F432
:101A900034FE0BC032FC09C0832D8E7EA82E05C0FB
:101AA000B82CA32C03C0B82C01C0B92CA4FE0FC0C5
:101AB000FE01E80DF11D8081803321F49A2D997E7D
:101AC000A92E09C0A2FE06C0B394B39404C08A2D07
:101AD000867809F0B394A3FC11C0A0FE06C0B2142E
:101AE00088F4280C922C9B180EC0B21460F4B60136
:101AF00080E290E00E94E110B394F7CFB21418F4A2
:101B00002B1802C0982C212CA4FE10C0B60180E333
:101B100090E00E94E110A2FE17C0A1FC03C088E77C
:101B200090E002C088E590E0B6010CC08A2D86786E
:101B300059F0A1FE02C08BE201C080E2A7FC8DE259
:101B4000B60190E00E94E110891438F4B60180E3F8
:101B500090E00E94E1109A94F7CF8A94F301E80D87
:101B6000F11D8081B60190E00E94E1108110F5CF57
:101B7000222009F442CEB60180E290E00E94E110FA
:101B80002A94F6CFF6018681978102C08FEF9FEFEE
:101B90002B96E2E10C94650920FD09C0FC0123FDB0
:101BA00005C022FF02C0738362835183408308957E
:101BB00044FD17C046FD17C0AB01BC01DA01FB01B3
:101BC000AA0FBB1FEE1FFF1F1094D1F74A0F5B1F18
:101BD0006E1F7F1FCB01BA01660F771F881F991FE9
:101BE00009C033E001C034E0660F771F881F991FDA
:101BF0003150D1F7620F711D811D911D08950F9312
:101C00001F93CF93DF938C01C8010E94A310EC01B6
:101C100097FD08C00E947910892BB1F7B801CE0159
:101C20000E941D11CE01DF91CF911F910F91089558
:101C30008F929F92AF92BF92EF92FF920F931F935A
:101C4000CF93DF938C01D62F7A01B22E0E94A3107E
:101C50009C0133272B32310531F02D32310561F4EF
:101C60008B2D8068B82ED15011F480E068C0C80177
:101C70000E94A31097FDF9CFCB2DCD7F2B2D207384
:101C800009F58033F9F4AA24AA94AD0E09F443C0EF
:101C9000C8010E94A31097FD3EC09C012F7D3327F1
:101CA0002835310549F4C264D250A9F1C8010E9417
:101CB000A31097FF07C02FC0B6FE02C0C26001C0CC
:101CC000C261DA2D812C912C540120ED280F28308F
:101CD00080F0C4FF04C0B8010E941D1119C02A3051
:101CE00040F0C6FFF8CF2F7D3FEE320F363098F729
:101CF00027504C2FC501B4010E94D80D4B015C0147
:101D0000C260D15059F0C8010E94A31097FFDDCFE7
:101D1000C1FD04C0AACF812C912C5401C7FF08C07B
:101D2000B094A09490948094811C911CA11CB11C2F
:101D30002C2FB501A401C7010E94CC0D81E0DF91D9
:101D4000CF911F910F91FF90EF90BF90AF909F9018
:101D50008F900895A0E2B0E0E0EBFEE00C944C0917
:101D60005C01962E7A01F9018E010F5F1F4F680109
:101D700080E2D8011D928A95E9F7D50113968C90DF
:101D800080E090E0612C712C30E061E070E083FC39
:101D9000259183FE21918F01522E211103C080E0F5
:101DA00090E092C02E3511F4009751F1432F50E08E
:101DB000481759073CF42D3559F12D3219F4772085
:101DC00009F103C0772009F46AC0452D4695469570
:101DD0004695D601A40FB11D452D47708B0102C059
:101DE000000F111F4A95E2F7A8015C91452B4C9317
:101DF000651459F0561410F45394E7CF5A94E5CF74
:101E000031E004C07724739401C0712C0196BFCFD8
:101E1000772019F08E8180628E83311103C088246F
:101E2000839417C0F6019E012F5D3F4F80818095FE
:101E300081932E173F07D1F7F2CFE114F10429F077
:101E4000D7018C93F70131967F019A94812C9920C8
:101E5000F9F0C5010E94A31097FD18C0FC01FF27EF
:101E600023E0F595E7952A95E1F7EC0DFD1D20811E
:101E700030E0AC014770552702C0359527954A954B
:101E8000E2F720FDDACFB5010E941D11811087CF46
:101E9000E114F10411F0D7011C92C80115C0422FC2
:101EA000469546954695D601A40FB11D422F477021
:101EB0008B0102C0000F111F4A95E2F7A8015C9147
:101EC000452B4C93622EA2CFA096EFE00C946809AC
:101ED000A0E0B0E0EEE6FFE00C944C096C01EB01F1
:101EE0005A01FC0117821682512CF601E380FE0193
:101EF000E3FC8591E3FE8191182FEF01882309F41B
:101F0000EEC090E00E947910892B21F0C6010E945A
:101F1000FF0DEBCF153241F4FE01E3FC1591E3FE1A
:101F20001191EF01153281F4C6010E94A31097FDB3
:101F3000D4C0412F50E09C01332724173507A9F264
:101F4000B6010E941D11CBC01A3239F4E3FC159181
:101F5000E3FE1191EF0101E001C000E0F12C20ED62
:101F6000210F2A3080F402606F2D70E080E090E055
:101F700040E20E94D80DF62EFE01E3FC1591E3FE2F
:101F80001191EF01ECCF01FF03C0F11003C0A7C016
:101F9000FF24FA94183619F01C3651F010C0FE01D7
:101FA000E3FC1591E3FE1191EF01183641F408604E
:101FB0000460FE01E3FC1591E3FE1191EF01112392
:101FC00009F48DC0612F70E082E691E00E948210DA
:101FD000892B09F484C000FD07C0F5018080918041
:101FE000C50102965C0102C0812C912C1E3651F471
:101FF000F6014681578160E070E0202FC4010E9405
:10200000CC0D73CF1336A9F401FD02C0FF24F39465
:10201000C6010E94A31097FD60C08114910429F0AD
:10202000F4018083C40101964C01FA94F110F0CFC1
:1020300050C01B3559F49E01A4016F2DC6010E94AA
:10204000AA0EEC01892B09F044C03EC0C6010E94D3
:10205000FF0D97FD42C01F3661F128F4143639F1A7
:10206000193651F128C0133771F0153701F123C02B
:102070008114910429F0F4016082C40101964C019D
:10208000FA94FF2071F0C6010E94A3103C0197FD55
:1020900008C00E947910892B59F3B601C3010E9430
:1020A0001D1181149104A9F0F401108212C0006284
:1020B00003C0006101C00064202FA4016F2DC60180
:1020C0000E94180E811105C0F6018381807329F4E6
:1020D00006C000FD0ACF539408CF552019F0852D76
:1020E00090E002C08FEF9FEFCDB7DEB7EFE00C942A
:1020F000680991110C949411803219F0895085501F
:10210000C8F70895FC010590061621F00020D9F7C4
:10211000C00108953197CF010895FC0105906150E9
:1021200070400110D8F7809590958E0F9F1F0895ED
:10213000FC016150704001900110D8F78095909596
:102140008E0F9F1F0895CF93DF93EC012B8120FF0B
:1021500033C026FF0AC02F7B2B838E819F8101967F
:102160009F838E838A8190E029C022FF0FC0E8817F
:10217000F9818081082E000C990B009719F42062D8
:102180002B831AC03196F983E8830EC0EA85FB855C
:10219000099597FF09C02B81019611F080E201C0DB
:1021A00080E1822B8B8308C02E813F812F5F3F4FC0
:1021B0003F832E83992702C08FEF9FEFDF91CF914E
:1021C00008950F931F93CF93DF93FB01238121FD8C
:1021D00003C08FEF9FEF2CC022FF16C046815781AE
:1021E000248135814217530744F4A081B1819D01B8
:1021F0002F5F3F4F318320838C93268137812F5F60
:102200003F4F3783268314C08B01EC01FB01008410
:10221000F185E02D0995892BE1F6D80116968D916F
:102220009C911797019617969C938E931697CE01C3
:10223000DF91CF911F910F910895FB01238120FF22
:1022400012C026FD10C08F3F3FEF930761F08283DD
:102250002F7D2064238326813781215031093783E4
:102260002683992708958FEF9FEF0895FA01AA27F3
:10227000283051F1203181F1E8946F936E7F6E5FC9
:102280007F4F8F4F9F4FAF4FB1E03ED0B4E03CD077
:10229000670F781F891F9A1FA11D680F791F8A1F5A
:1022A000911DA11D6A0F711D811D911DA11D20D0C1
:1022B00009F468943F912AE0269F11243019305D7B
:1022C0003193DEF6CF010895462F4770405D41936C
:1022D000B3E00FD0C9F7F6CF462F4F70405D4A33B9
:1022E00018F0495D31FD4052419302D0A9F7EACF81
:1022F000B4E0A6959795879577956795BA95C9F7B0
:1023000000976105710508959B01AC010A2E0694A2
:102310005795479537952795BA95C9F7620F731F5B
:10232000841F951FA01D0895992788270895F89464
:02233000FFCFDD
:102332000000030280002054656D2D002048756D59
:102342002D00000000008E02F7012502DB0256027A
:102352003402480225643B25643A256C78212573B2
:0A2362002A00256400476976650033
:00000001FF
