:1000000078C10000A4C10000A2C10000A0C100008E
:100010009EC100009CC100009AC1000098C1000070
:1000200096C1000094C1000092C1000090C1000080
:100030008EC100008CC100008AC1000088C1000090
:1000400086C1000084C1000082C1000080C10000A0
:100050007EC100007CC100007AC1000090C4000095
:1000600076C1000074C1000072C1000070C10000C0
:100070006EC100006CC100006AC1000068C10000D0
:1000800066C1000064C1000062C1000060C10000E0
:100090005EC100005CC100005AC1000058C10000F0
:1000A00056C1000054C10000B4C4000050C100009B
:1000B0004EC100004CC100004AC1000048C1000010
:1000C00046C1000044C1000042C1000040C1000020
:1000D0003EC100003CC100003AC1000038C1000030
:1000E00036C10000F501F801E701EB01EF012F0235
:1000F000FC01000206020A020E02140218021C028F
:100100002F02220226022A023D073F07410743072A
:100110004507470749074B074D074F07A507A507A1
:10012000A507A507A507A507A5070D073107F00631
:10013000EA065307F9063030003031003032003023
:10014000330030340030350030360030370030387E
:1001500000303900313000313100313200313300AC
:10016000313400313500313600313700313800315B
:100170003900323000323100323200323300323452
:100180000032350032360032370032380032390062
:100190003330003331003332003333003334003333
:1001A000350033360033370033380033390034300C
:1001B000003431003432003433003434003435003C
:1001C00034360034370034380034390035300035E7
:1001D00031003532003533003534003535003536E1
:1001E0000035370035380035390000000A0B0209A8
:1001F0000C0D0E08070304010000000000000000C1
:1002000000000000000000000000000000000000EE
:1002100000000000000012111000000000000000AB
:1002200000000000000000000000000000000000CE
:1002300000002200250028002B002E003100340091
:1002400002010000050108010B010000210024004B
:1002500027002A002D0030003300010100000401B6
:1002600007010A0105050505070508080808020237
:1002700002020A0A08080404040401010101010140
:1002800001010303030303030303040707070C0C23
:100290000C0C0C0C0C0C02020202060606060606EA
:1002A00006060B0B0B0B0B0B0B0B0102102020088F
:1002B00008102040102040800201020108040201C1
:1002C0000102040810204080804020100804020130
:1002D0008004020180402010080402010804020189
:1002E0000102040810204080010204081020408010
:1002F000AC0711241FBECFEFD1E2DEBFCDBF00E0BF
:100300000CBF12E0A0E0B2E0E8EBFFE000E00BBFC2
:1003100002C007900D92AC32B107D9F723E0ACE2EE
:10032000B2E001C01D92AB30B207E1F711E0C9E7BE
:10033000D1E000E005C021970109802FFE012ED6F3
:10034000C837D10780E00807B1F7DBD333C658CEF2
:1003500090E0FC01E655FD4F2491FC01EC59FD4F66
:100360008491882399F090E0880F991FFC01E65B47
:10037000FD4FA591B491FC01E05DFD4F85919491F5
:100380008FB7F894EC91E22BEC938FBF0895362F42
:1003900090E0FC01E651FE4F4491FC01E655FD4F13
:1003A0002491FC01EC59FD4F9491992309F46BC001
:1003B000442309F454C050E0FA013197E231F105C9
:1003C00008F04DC08827EE58FF4F8F4FE7C580914A
:1003D00080008F7707C0809180008F7D03C080915F
:1003E0008000877F809380003AC084B58F7702C0F9
:1003F00084B58F7D84BD33C08091B0008F7703C0FA
:100400008091B0008F7D8093B00029C080919000D2
:100410008F7707C0809190008F7D03C080919000FE
:10042000877F809390001BC08091A0008F7707C0CA
:100430008091A0008F7D03C08091A000877F809372
:10044000A0000DC0809120018F7707C0809120010E
:100450008F7D03C080912001877F80932001E92F49
:10046000F0E0EE0FFF1FE05DFD4FA591B4919FB747
:10047000F894311104C08C912095282302C0EC918E
:100480002E2B2C939FBF08953FB7F8948091EF02D5
:100490009091F002A091F102B091F20226B5A89BD2
:1004A00005C02F3F19F00196A11DB11D3FBFBA2F06
:1004B000A92F982F8827820F911DA11DB11DBC0166
:1004C000CD0142E0660F771F881F991F4A95D1F72B
:1004D00008958F929F92AF92BF92CF92DF92EF9248
:1004E000FF926B017C01D0DF4B015C01C114D10490
:1004F000E104F104E9F0C8DFDC01CB0188199909B6
:10050000AA09BB09883E9340A105B10578F321E013
:10051000C21AD108E108F10888EE880E83E0981E1F
:10052000A11CB11CC114D104E104F10421F7DECFF8
:10053000FF90EF90DF90CF90BF90AF909F908F9003
:1005400008950F931F93CF93DF938C01C2E7D0E000
:1005500088818D7F888361E085E119DFB801110F03
:10056000880B990BB6DF60E085E111DF82E08883BC
:10057000DF91CF911F910F910895CF92DF92EF926B
:10058000FF920F931F93CF93DF936C017A018B013E
:10059000C0E0D0E0CE15DF0581F0D8016D918D016E
:1005A000D601ED91FC910190F081E02DC6011995E5
:1005B000892B11F02196EECF7E01C701DF91CF91FB
:1005C0001F910F91FF90EF90DF90CF900895CF9300
:1005D000DF93EC0160E08E81DADE61E08E81D7DEB0
:1005E00060E08E81D4DE8BE891E00197F1F7DF9136
:1005F000CF910895CF92DF92EF92FF920F931F93C6
:10060000CF93DF936C017C0187E0E80EF11CC0E022
:10061000D0E0062F10E0B8010C2E02C0759567954A
:100620000A94E2F76170F70181917F01B0DE2196B3
:10063000C430D10581F7C601DF91CF911F910F9191
:10064000FF90EF90DF90CF90C2CFCF92DF92EF92EA
:10065000FF920F931F93CF93DF93EC01F62E642F3D
:100660008C8195DE8D818F3F11F060E090DE8F856B
:100670000F2D10E084FF23C06E0187E0C80ED11C4F
:10068000E12CF12CB8010E2C02C0759567950A94E7
:10069000E2F76170F60181916F0179DEFFEFEF1AE9
:1006A000FF0A88E0E816F10469F7CE01DF91CF91E7
:1006B0001F910F91FF90EF90DF90CF9088CFB801FE
:1006C00084E0759567958A95E1F7CE0193DF6F2DEC
:1006D000CE01DF91CF911F910F91FF90EF90DF90AE
:1006E000CF9088CF40E0682F83EF92E0AECFCF93DA
:1006F000DF93823028F09091020398609093020378
:10070000809306031092070380E48093080380E13E
:100710008093090380E580930A038091F70218DE35
:100720008091F8028F3F09F013DE8091F90210DE0C
:10073000C3EFD2E09E01235F32408091020384FD2B
:1007400003C084E090E002C088E090E02196281782
:1007500039071CF48E81FCDDEDCF8BE39DE0019722
:10076000F1F760E08091F70212DE60E08091F9021B
:100770000EDE8091F8028F3F11F060E008DE80917C
:10078000020384FD1CC063E083EF92E033DFCBE41F
:10079000D6E4CE010197F1F763E083EF92E02ADF20
:1007A0002197F1F763E083EF92E024DF83E592E0A5
:1007B0000197F1F762E083EF92E01CDF12C08062E4
:1007C00091DF8BE496E40197F1F780910203806258
:1007D00089DF83E592E00197F1F78091020380625F
:1007E00081DF8091020380627DDF84E080930303D8
:1007F0008CE078DF81E076DF8BE39FE10197F1F712
:1008000082E08093040386E0DF91CF916BCF643068
:1008100008F063E090910603691710F06FEF690F1D
:10082000E62FF0E0ED50FD4F9489890F80685ACF94
:1008300041E00BDF81E090E00895CF93DF93EC017E
:10084000FC01649141E083EF92E0FFDEFE0131960E
:10085000649141E083EF92E0DF91CF91F6CE08956D
:1008600080E090E00895CF93DF93C82F80E0CFDF42
:10087000D0E0CE01880F991F8C0F9D1F8A5C9E4F80
:10088000DCDF6DE283EF92E0D3DF2197CE01880FAA
:10089000991FC80FD91FC45DDD4F8A8190E09C016C
:1008A000220F331F820F931F8A5C9E4FC6DF6AE3BD
:1008B00083EF92E0BDDF898190E09C01220F331F1E
:1008C000820F931F8A5C9E4FB8DF6AE383EF92E04A
:1008D000AFDF888190E09C01220F331F820F931FAE
:1008E0008A5C9E4FDF91CF91A8CF009761F0FC0109
:1008F00001900020E9F73197AF01481B590BBC016B
:1009000083EF92E03ACE80E090E0089561E0ABDFC3
:1009100060E080E07CDF8FE092E0E7CFCF93813032
:1009200011F4CF91F3CF681748F0C82F60E08FEF34
:100930008C0F99DF61E08C2FCF9195CFCF910895E7
:10094000CF93C62F882321F09AE0899FC00D1124F0
:10095000CC3308F0C0E061E08DE059DF8BE192E03C
:10096000C4DF8C2F90E09C01220F331F820F931F56
:100970008A5C9E4F62DF8C2FCF91089517D31F9210
:100980000F920FB60F9211242F933F938F939F9343
:10099000AF93BF938091EB029091EC02A091ED0296
:1009A000B091EE023091EA0223E0230F2D3720F4BC
:1009B0000196A11DB11D05C026E8230F0296A11DB9
:1009C000B11D2093EA028093EB029093EC02A09376
:1009D000ED02B093EE028091EF029091F002A091AF
:1009E000F102B091F2020196A11DB11D8093EF02B8
:1009F0009093F002A093F102B093F202BF91AF91F5
:100A00009F918F913F912F910F900FBE0F901F904C
:100A100018951F920F920FB60F9211240BB60F92DA
:100A20002F933F934F935F936F937F938F939F93F6
:100A3000AF93BF93EF93FF938091E3028823F1F08C
:100A40008091E7028F5F8C3319F08093E70216C024
:100A50001092E7028091E8028F5F8C3319F0809347
:100A6000E8020CC01092E8028091E9028F5F8831A1
:100A700019F08093E90202C01092E9028091E1022C
:100A800081112CC060E083E0C2DE8091E90290E039
:100A90009C01220F331F820F931F8A5C9E4FCDDE75
:100AA0006AE383EF92E0C4DE8091E80290E09C016B
:100AB000220F331F820F931F8A5C9E4FBEDE6AE3B4
:100AC00083EF92E0B5DE8091E70290E09C01220F77
:100AD000331F820F931F8A5C9E4FAFDEFF91EF9111
:100AE000BF91AF919F918F917F916F915F914F9146
:100AF0003F912F910F900BBE0F900FBE0F901F9044
:100B00001895789484B5826084BD84B5816084BD75
:100B100085B5826085BD85B5816085BD80916E009B
:100B2000816080936E0010928100809181008260CC
:100B30008093810080918100816080938100809109
:100B400080008160809380008091B10084608093F8
:100B5000B1008091B00081608093B00080919100DD
:100B600082608093910080919100816080939100D8
:100B7000809190008160809390008091A1008260BC
:100B80008093A1008091A10081608093A100809159
:100B9000A00081608093A0008091210182608093F9
:100BA00021018091210181608093210180912001A8
:100BB00081608093200180917A00846080937A0024
:100BC00080917A00826080937A0080917A008160BF
:100BD00080937A0080917A00806880937A001092E6
:100BE000C100F8941092A0008DE08093A10082E0F3
:100BF0008093720088E09DE39093A9008093A80001
:100C00008FE087B980EF88B982E071DD789485E163
:100C10009FDB60E085E1BBDBC1E01EEF00EFD5E4C8
:100C2000BD2E8BE3E82E8FE1F82E90E0C92E90E0E8
:100C3000D92ED1E026E4A22E64E4962E73E4872E0A
:100C4000E2E47E2EF1E46F2EA0E35A2EB9E34B2EA0
:100C50008091E8029091E602891729F08093E602DC
:100C600088EC90E06EDC3090010281E038128CC09C
:100C700086B1803F09F492C062E370E080E090E0CA
:100C800028DC109201023092000218B9000098B1DD
:100C900086B1981317C08DEF88B9000098B186B15E
:100CA000981310C08BEF88B9000098B186B19813E3
:100CB00009C087EF88B9000098B186B1981302C0C7
:100CC0001092000280910002813009F05BC086B171
:100CD0008E3E11F481E304C086B18E3D21F482E39F
:100CE0008093E4024DC086B18E3B11F483E3F8CFCC
:100CF00086B18D3E11F484E3F3CF86B18D3D11F4BE
:100D000085E3EECF86B18D3B11F486E3E9CF86B162
:100D10008B3E11F487E3E4CF86B18B3D11F488E379
:100D2000DFCF86B18B3B19F44092E40229C086B133
:100D3000873D19F45092E40223C086B18E3719F42E
:100D40006092E4021DC086B18D3719F47092E402FE
:100D500017C086B18B3719F48092E40211C086B1B6
:100D6000873719F49092E4020BC086B1873B19F4DF
:100D7000B092E40205C086B1873E11F4A092E4026D
:100D8000D093E50208B90AC086B1803F39F468EC17
:100D900070E080E090E09DDBD09301028091E5025D
:100DA000882309F4D2C061E080E031DD1092E502D1
:100DB000E091E4028E2FEE0F990BAA0BBB0BFC0106
:100DC000F097E731F10508F0C0C08827EC57FF4FD6
:100DD0008F4FE4C08091E3028C278093E302B5C07B
:100DE0001092E3021092E7021092E8021092E902D8
:100DF000ACC01092E20260E08DE009DD8DE192E08E
:100E000074DD68EE73E080E090E063DB60E08DE02D
:100E1000FEDC87E192E069DD98C081E063DCC70118
:100E20000197F1F78091E202811109C060E084E04E
:100E3000EEDC81E292E059DD88EE93E078C08091AB
:100E4000E1028C278093E102882341F081E05EDD9E
:100E500060E080E075DD8093E00243C01092020202
:100E600040C0809102026091E202861708F06DC0D6
:100E70008F5F8093020252DD68C060E011C061E0C4
:100E80000FC062E00DC063E00BC064E009C065E024
:100E900007C066E005C067E003C068E001C069E024
:100EA0008091E0024FC08091E1026091E2028111E5
:100EB0002AC0862F90E0FC01EE0FFF1F8E0F9F1FB0
:100EC000FC01E45DFD4F8091E7029091E802A09162
:100ED000E90280839183A2836D3318F46F5F60937E
:100EE000E20260E08DE093DC89E292E0FEDC80913A
:100EF000E20290E09C01220F331F820F931F8A5C55
:100F00009E4F9BDC22C03090E002631590F03320AE
:100F100081F030920202832D01DD82E390E011DB4B
:100F200064E670E080E090E0D4DA82E390E009DBF0
:100F30000CC084EF91E005DB60E0832D01DD809340
:100F4000E00260E0FDDC8093E002C114D10409F40A
:100F50007FCE0E94000070CEE3EFF2E01382128297
:100F600087E092E09183808385E0848386E08583B7
:100F700087E0868386E1878387E1808788E18187B0
:100F800089E182878AE183878BE184878CE1858789
:100F90008DE1868780E1878781E0A9CBEE0FFF1F77
:100FA000881F8BBF0790F691E02D199481E090E0A7
:080FB000F89400C0F894FFCF93
:100FB800010101000000001804BD0230042F0420C4
:100FC8002020202020202020202000460044454CBE
:0C0FD800004E4F5448494E47004D0000A9
:00000001FF
