:020000020000FC
:0200000054C0EA
:1000A80020C00FEF0DBF01E20EBF0FEF00BB01B97B
:1000B800002701BB02B907B9439A459A3A9A429870
:1000C80000270093A0000DE00093A10002E0009338
:1000D800720006E30093A9000DEE0093A80078943F
:1000E80026C0002702B901BB00FC03D001FC0FD0D9
:1000F80018953395353039F00027052B062B02B9B2
:10010800550F669508950EEF0022552708954395DB
:10011800493049F071BB769576950027701709F03C
:10012800089570E408950DEF002277270895339B12
:1001380007C0359B0BC0FBCF429A0ED04298F7CF31
:1001480001E0002A332751E060E8F6CF02E0002AF8
:10015800442700E8702FF0CF00E014EC29E00150AC
:0801680010402040E1F708956A
:00000001FF
