:1000000014C1000040C100003EC100003CC100001E
:100010003AC1000038C1000036C1000034C1000000
:1000200032C1000030C100002EC100002CC1000010
:100030002AC1000028C1000026C1000024C1000020
:1000400022C1000020C100001EC100001CC1000030
:100050001AC1000018C1000016C100009CC30000B6
:1000600012C100000BC40000E0C300000CC100007E
:100070000AC1000008C1000006C1000004C1000060
:1000800002C1000000C10000FEC00000FCC0000072
:10009000FAC00000F8C00000F6C00000F4C0000084
:1000A000F2C00000F0C00000EEC00000ECC0000094
:1000B000EAC00000E8C00000E6C00000E4C00000A4
:1000C000E2C00000E0C00000DEC00000DCC00000B4
:1000D000DAC00000D8C00000D6C00000D4C00000C4
:1000E000D2C0000099019C018B018F019301D301C3
:1000F000A001A401AA01AE01B201B801BC01C00176
:10010000D301C601CA01CE01000020002300260051
:1001100029002C002F00320000010000030106011D
:10012000090100000A0B02090C0D0E080703040167
:1001300000000000000000000000000000000000BF
:10014000000000000000000000000000000012118C
:10015000100000000000000000000000000000008F
:100160000000000000000000000022002500280020
:100170002B002E00310034000201000005010801AF
:100180000B0100002100240027002A002D00300070
:10019000330001010000040107010A0105050505FE
:1001A000070508080808020202020A0A08080404EF
:1001B000040401010101010101010303030303031D
:1001C0000303040707070C0C0C0C0C0C0C0C0202AC
:1001D000020206060606060606060B0B0B0B0B0BA9
:1001E0000B0B010210202008081020401020408036
:1001F00002010201080402010102040810204080EB
:100200008040201008040201800402018040201078
:1002100008040201080402010102040810204080C1
:100220000102040810204080650511241FBECFEF95
:10023000D1E2DEBFCDBF00E00CBF12E0A0E0B2E033
:10024000E4E8FBE000E00BBF02C007900D92A23192
:10025000B107D9F722E0A2E1B2E001C01D92A83BAC
:10026000B207E1F711E0C5E1D1E000E005C0219758
:100270000109802FFE0178D4C431D10780E008073E
:10028000B1F732D37DC4BCCECF93DF9390E0FC01B5
:10029000EE51FE4F2491FC01E456FE4F84918823D9
:1002A000C1F090E0880F991FFC01EE57FE4FC591F9
:1002B000D491FC01E859FE4FA591B4919FB7F894F1
:1002C0008881322F309583238883EC91E22BEC9345
:1002D0009FBFDF91CF91089590E0FC01EE5DFE4F4E
:1002E0004491FC01EE51FE4F2491FC01E456FE4F77
:1002F0009491992309F466C0442309F454C050E052
:10030000FA013197E231F10508F04DC08827EE5827
:10031000FF4F8F4F29C4809180008F7707C0809155
:1003200080008F7D03C080918000877F8093800054
:100330003AC084B58F7702C084B58F7D84BD33C049
:100340008091B0008F7703C08091B0008F7D809343
:10035000B00029C0809190008F7707C080919000F5
:100360008F7D03C080919000877F809390001BC099
:100370008091A0008F7707C08091A0008F7D03C07F
:100380008091A000877F8093A0000DC08091200104
:100390008F7707C0809120018F7D03C0809120015D
:1003A000877F80932001E92FF0E0EE0FFF1FE85FC9
:1003B000FE4FA591B491EC91E22381E090E021F40D
:1003C00080E0089580E090E008953FB7F894809130
:1003D000170290911802A0911902B0911A0226B545
:1003E000A89B05C02F3F19F00196A11DB11D3FBF6D
:1003F000BA2FA92F982F8827820F911DA11DB11DFB
:10040000BC01CD0142E0660F771F881F991F4A95F6
:10041000D1F708958F929F92AF92BF92CF92DF92C1
:10042000EF92FF92D2DF4B015C0184E8C82E83E09B
:10043000D82EE12CF12CC9DFDC01CB0188199909F8
:10044000AA09BB09883E9340A105B105A0F321E0AC
:10045000C21AD108E108F10888EE880E83E0981EE0
:10046000A11CB11CC114D104E104F10421F7FF90D7
:10047000EF90DF90CF90BF90AF909F908F900895B6
:10048000CF92DF92EF92FF920F931F93CF93DF9360
:100490006C017A018B01C0E0D0E0CE15DF0581F060
:1004A000D8016D918D01D601ED91FC910190F08103
:1004B000E02DC6011995892B11F02196EECF7E0112
:1004C000C701DF91CF911F910F91FF90EF90DF90C7
:1004D000CF900895089580E090E00895FC01538D39
:1004E000448D252F30E0842F90E0821B930B54170E
:1004F00010F0CF96089501970895FC01918D828D9B
:10050000981761F0828DDF01A80FB11D5D968C9167
:10051000928D9F5F9F73928F90E008958FEF9FEF72
:100520000895FC01918D828D981731F0828DE80F2E
:10053000F11D858D90E008958FEF9FEF0895FC01E8
:10054000918D228D892F90E0805C9F4F821B9109B5
:100550008F73992708958BE192E0F1DF21E0892BD9
:1005600009F420E0822F0895FC01848DDF01A80F9B
:10057000B11DA35ABF4F2C91848D90E001968F73CB
:100580009927848FA689B7892C93A089B1898C91EA
:10059000837080648C93938D848D981306C0028839
:1005A000F389E02D80818F7D80830895EF92FF9203
:1005B0000F931F93CF93DF93EC0181E0888F9B8D86
:1005C0008C8D981305C0E889F989808185FD25C047
:1005D000F62E0B8D10E00F5F1F4F0F731127E02ECB
:1005E0008C8DE8120BC00FB607FCFACFE889F989A9
:1005F000808185FFF5CFCE01B7DFF2CF8B8DFE0175
:10060000E80FF11DE35AFF4FF0829FB7F8940B8F6C
:10061000EA89FB89808180620AC09FB7F894EE89DD
:10062000FF896083E889F989808183708064808391
:100630009FBF81E090E0DF91CF911F910F91FF90DC
:10064000EF900895CF93DF93EC01888D8823C1F05C
:10065000EA89FB89808185FD05C0A889B9898C91CB
:1006600086FD0EC00FB607FCF5CF808185FFF2CF67
:10067000A889B9898C9185FFEDCFCE0175DFE8CFD0
:10068000DF91CF91089580E090E0892B19F063DF2E
:10069000811125C080E090E0892B41F080E090E05E
:1006A000892B21F00E94000081111CC080E090E0A5
:1006B000892B41F080E090E0892B21F00E9400001E
:1006C000811113C080E090E0892BA1F080E090E0E0
:1006D000892B81F00E94000081110AC008950E94B8
:1006E0000000D8CF0E940000E1CF0E940000EACFB6
:1006F0000C94000008958F929F92AF92BF920F9337
:100700001F93CF93DF93CDB7DEB7A1970FB6F894C1
:10071000DEBF0FBECDBF19A2423008F44AE08E0101
:100720000F5D1F4F842E912CA12CB12CA50194019B
:10073000F9D1E62FB901CA0101501109EA3014F4C8
:10074000E05D01C0E95CD801EC93232B242B252B21
:1007500069F70115110569F0F80101900020E9F72A
:100760003197AF01401B510BB8018BE192E088DE5D
:1007700002C080E090E0A1960FB6F894DEBF0FBEF5
:10078000CDBFDF91CF911F910F91BF90AF909F9000
:100790008F900895F1D11F920F920FB60F921124EE
:1007A0002F933F938F939F93AF93BF9380911302A7
:1007B00090911402A0911502B0911602309112028C
:1007C00023E0230F2D3720F40196A11DB11D05C094
:1007D00026E8230F0296A11DB11D209312028093DB
:1007E000130290931402A0931502B0931602809105
:1007F000170290911802A0911902B0911A02019665
:10080000A11DB11D8093170290931802A0931902A5
:10081000B0931A02BF91AF919F918F913F912F9109
:100820000F900FBE0F901F9018951F920F920FB64A
:100830000F9211240BB60F922F933F934F935F9318
:100840006F937F938F939F93AF93BF93EF93FF9398
:100850008BE192E089DEFF91EF91BF91AF919F9183
:100860008F917F916F915F914F913F912F910F9059
:100870000BBE0F900FBE0F901F9018951F920F92F6
:100880000FB60F9211240BB60F922F938F939F9355
:10089000EF93FF93E0912B02F0912C028081E09185
:1008A0003102F091320282FD12C0908180913402B7
:1008B0008F5F8F7320913502821751F0E0913402DF
:1008C000F0E0E55EFD4F958F8093340201C080819A
:1008D000FF91EF919F918F912F910F900BBE0F90F1
:1008E0000FBE0F901F901895789484B5826084BDD8
:1008F00084B5816084BD85B5826085BD85B5816024
:1009000085BD80916E00816080936E0010928100A1
:10091000809181008260809381008091810081605C
:10092000809381008091800081608093800080911D
:10093000B10084608093B1008091B00081608093A9
:10094000B00080919100826080939100809191002D
:1009500081608093910080919000816080939000ED
:100960008091A10082608093A1008091A1008160AC
:100970008093A1008091A00081608093A00080916D
:100980002101826080932101809121018160809307
:1009900021018091200181608093200180917A0063
:1009A000846080937A0080917A00826080937A00DC
:1009B00080917A00816080937A0080917A008068CB
:1009C00080937A001092C1008FEF81B912B88EE245
:1009D0005BDC8CE259DCE0912B02F0912C0282E08E
:1009E0008083E0912702F09128021082E091290291
:1009F000F0912A028FEC808310923302E0912F0253
:100A0000F091300286E08083E0912D02F0912E0279
:100A1000808180618083E0912D02F0912E0280819F
:100A200088608083E0912D02F0912E0280818068A1
:100A30008083E0912D02F0912E0280818F7D808352
:100A4000D1E882E4F82E94E2E92E28E1D22E8EE25B
:100A500043DC892B31F44AE061E070E080E090E013
:100A60004ADE8CE239DC892B31F44AE062E070E046
:100A700080E090E040DE8BE192E061DD892B19F1AE
:100A80008BE192E03ADD082E000C990B8130910544
:100A900049F4D2B9BFDCF2B8BDDCE2B8BBDCD2B8F5
:100AA000B9DC10C0029779F408E010E0C1E0C2B9E7
:100AB000CC0FCC0FAFDC0150110921F0C111F7CFE1
:100AC000C2E0F5CF12B8DFDDC2CFEBE1F2E0138276
:100AD000128288EE93E0A0E0B0E084839583A68341
:100AE000B78384E092E09183808385EC90E09587E2
:100AF000848784EC90E09787868780EC90E0918BE8
:100B0000808B81EC90E0938B828B82EC90E0958BD4
:100B1000848B86EC90E0978B868B118E128E138ED1
:100B2000148E0895A1E21A2EAA1BBB1BFD010DC055
:100B3000AA1FBB1FEE1FFF1FA217B307E407F5078D
:100B400020F0A21BB30BE40BF50B661F771F881F69
:100B5000991F1A9469F760957095809590959B01FF
:100B6000AC01BD01CF010895EE0FFF1F881F8BBFA1
:100B70000790F691E02D199481E090E0F89400C080
:040B8000F894FFCF17
:100B840000000000D60240026E0222039F027D0292
:020B94009102CC
:00000001FF
