:1000000014C1000040C100003EC100003CC100001E
:100010003AC1000038C1000036C1000034C1000000
:1000200032C1000030C100002EC100002CC1000010
:100030002AC1000028C1000026C1000024C1000020
:1000400022C1000020C100001EC100001CC1000030
:100050001AC1000018C1000016C10000F6C200005D
:1000600012C1000065C300003AC300000CC10000CB
:100070000AC1000008C1000006C1000004C1000060
:1000800002C1000000C10000FEC00000FCC0000072
:10009000FAC00000F8C00000F6C00000F4C0000084
:1000A000F2C00000F0C00000EEC00000ECC0000094
:1000B000EAC00000E8C00000E6C00000E4C00000A4
:1000C000E2C00000E0C00000DEC00000DCC00000B4
:1000D000DAC00000D8C00000D6C00000D4C00000C4
:1000E000D2C000005E016101500154015A01980123
:1000F000650169016F01730177017D01810185014E
:1001000098018B018F01930100002100240027003A
:100110002A002D0030003300010100000401070116
:100120000A01000020002300260029002C002F00D7
:100130003200000100000301060109010000220055
:10014000250028002B002E003100340002010000A1
:10015000050108010B010505050507050808080844
:10016000020202020A0A080804040404010101014F
:10017000010101010303030303030303040707074A
:100180000C0C0C0C0C0C0C0C0202020206060606EF
:10019000060606060B0B0B0B0B0B0B0B01021020BC
:1001A00020080810204010204080020102010804AD
:1001B0000201010204081020408080402010080441
:1001C000020180040201804020100804020108049A
:1001D00002010102040810204080010204081020DE
:1001E000408000000A0B02090C0D0E0807030401F1
:1001F00000000000000000000000000000000000FF
:1002000000000000000000000000000000001211CB
:1002100010000000000000000000000000000000CE
:100220000000000000000000080511241FBECFEFF1
:10023000D1E2DEBFCDBF00E00CBF12E0A0E0B2E033
:10024000E6E8FAE000E00BBF02C007900D92A23191
:10025000B107D9F722E0A2E1B2E001C01D92A83BAC
:10026000B207E1F711E0C5E1D1E000E005C0219758
:100270000109802FFE01F9D3C431D10780E00807BE
:10028000B1F78CD2FEC3BCCE90E0FC013197E231D5
:10029000F10508F04DC08827EE58FF4F8F4FE5C39A
:1002A000809180008F7703C0809180008F7D809344
:1002B0008000089580918000877FF9CF84B58F7783
:1002C00002C084B58F7D84BD08958091B0008F7782
:1002D00003C08091B0008F7D8093B000089580911D
:1002E00090008F7707C0809190008F7D03C0809130
:1002F0009000877F8093900008958091A0008F7771
:1003000007C08091A0008F7D03C08091A000877FEF
:100310008093A0000895809120018F7707C080917D
:1003200020018F7D03C080912001877F8093200171
:1003300008951F93CF93DF93EFEEF1E09491E9EAF4
:10034000F1E0D491E3E6F1E0C491CC23C9F0182F99
:10035000992311F0892F98DFEC2FF0E0EE0FFF1FAB
:10036000E45CFE4FA591B4919FB7F894111104C0BD
:100370008C91D095D82302C0EC91DE2BDC939FBFEB
:10038000DF91CF911F9108953FB7F8948091B40207
:100390009091B502A091B602B091B70226B5A89B84
:1003A00005C02F3F19F00196A11DB11D3FBFBA2F07
:1003B000A92F982F8827820F911DA11DB11DBC0167
:1003C000CD0142E0660F771F881F991F4A95D1F72C
:1003D0000895CF92DF92EF92FF920F931F93CF93E6
:1003E000DF936C017A018B01C0E0D0E0CE15DF0510
:1003F00081F0D8016D918D01D601ED91FC910190B4
:10040000F081E02DC6011995892B11F02196EECFD0
:100410007E01C701DF91CF911F910F91FF90EF9067
:10042000DF90CF900895089580E090E00895FC015A
:10043000538D448D252F30E0842F90E0821B930B49
:10044000541710F0CF96089501970895FC01918DEF
:10045000828D981761F0828DDF01A80FB11D5D9626
:100460008C91928D9F5F9F73928F90E008958FEF94
:100470009FEF0895FC01918D828D981731F0828D48
:10048000E80FF11D858D90E008958FEF9FEF08959F
:10049000FC01918D228D892F90E0805C9F4F821B03
:1004A00091098F739927089582E192E0F1DF21E0AD
:1004B000892B09F420E0822F0895FC01848DDF014F
:1004C000A80FB11DA35ABF4F2C91848D90E00196C7
:1004D0008F739927848FA689B7892C93A089B189B6
:1004E0008C91837080648C93938D848D981306C057
:1004F0000288F389E02D80818F7D80830895EF92BB
:10050000FF920F931F93CF93DF93EC0181E0888FCD
:100510009B8D8C8D981305C0E889F989808185FDB4
:1005200025C0F62E0B8D10E00F5F1F4F0F731127A4
:10053000E02E8C8DE8120BC00FB607FCFACFE889CD
:10054000F989808185FFF5CFCE01B7DFF2CF8B8DA2
:10055000FE01E80FF11DE35AFF4FF0829FB7F894B8
:100560000B8FEA89FB89808180620AC09FB7F8946B
:10057000EE89FF896083E889F989808183708064CE
:1005800080839FBF81E090E0DF91CF911F910F9119
:10059000FF90EF900895CF93DF93EC01888D88232F
:1005A000C1F0EA89FB89808185FD05C0A889B989E8
:1005B0008C9186FD0EC00FB607FCF5CF808185FFBC
:1005C000F2CFA889B9898C9185FFEDCFCE0175DF77
:1005D000E8CFDF91CF91089580E090E0892B19F06A
:1005E00063DF811125C080E090E0892B41F080E03D
:1005F00090E0892B21F00E94000081111CC080E056
:1006000090E0892B41F080E090E0892B21F00E945E
:100610000000811113C080E090E0892BA1F080E000
:1006200090E0892B81F00E94000081110AC008959A
:100630000E940000D8CF0E940000E1CF0E9400007D
:10064000EACF0C940000089518D21F920F920FB6B3
:100650000F9211242F933F938F939F93AF93BF9348
:100660008091B0029091B102A091B202B091B30218
:100670003091AF0223E0230F2D3720F40196A11D06
:10068000B11D05C026E8230F0296A11DB11D2093C0
:10069000AF028093B0029093B102A093B202B093E4
:1006A000B3028091B4029091B502A091B602B091CC
:1006B000B7020196A11DB11D8093B4029093B502BB
:1006C000A093B602B093B702BF91AF919F918F9163
:1006D0003F912F910F900FBE0F901F9018951F9272
:1006E0000F920FB60F9211240BB60F922F933F93D8
:1006F0004F935F936F937F938F939F93AF93BF932A
:10070000EF93FF9382E192E0D8DEFF91EF91BF91EA
:10071000AF919F918F917F916F915F914F913F9199
:100720002F910F900BBE0F900FBE0F901F9018953A
:100730001F920F920FB60F9211240BB60F922F93A8
:100740008F939F93EF93FF93E0912202F091230206
:100750008081E0912802F091290282FD12C09081EF
:1007600080912B028F5F8F7320912C02821751F0A2
:10077000E0912B02F0E0EE5EFD4F958F80932B020F
:1007800001C08081FF91EF919F918F912F910F90E8
:100790000BBE0F900FBE0F901F901895789484B5E4
:1007A000826084BD84B5816084BD85B5826085BD6D
:1007B00085B5816085BD80916E00816080936E00FB
:1007C00010928100809181008260809381008091ED
:1007D000810081608093810080918000816080939E
:1007E00080008091B10084608093B1008091B0005E
:1007F00081608093B000809191008260809391002D
:10080000809191008160809391008091900081603F
:10081000809390008091A10082608093A1008091DC
:10082000A10081608093A1008091A00081608093ED
:10083000A00080912101826080932101809121019B
:10084000816080932101809120018160809320014B
:1008500080917A00846080937A0080917A0082602F
:1008600080937A0080917A00816080937A008091F1
:100870007A00806880937A001092C100E091220291
:10088000F091230282E08083E0911E02F0911F022A
:100890001082E0912002F09121028FEC808310926F
:1008A0002A02E0912602F091270286E08083E091FF
:1008B0002402F0912502808180618083E0912402EE
:1008C000F0912502808188608083E0912402F0917C
:1008D0002502808180688083E0912402F0912502C6
:1008E00080818F7D8083E9EAF1E02491E3E6F1E005
:1008F0008491882399F090E0880F991FFC01E85FAC
:10090000FE4FA591B491FC01E45CFE4F859194915A
:100910008FB7F894EC91E22BEC938FBF80E009DD68
:10092000C2EBD1E0FE0144910CE611E0F8018491A4
:100930008823C9F090E0880F991FFC01E85FFE4F03
:1009400025913491FC01E45CFE4FA591B4915FB711
:10095000F894F9019081842F8095982390838C914D
:10096000842B8C935FBF28EFE22E21E0F22E82E1F0
:1009700092E08EDD892B69F082E192E067DD813AB9
:10098000910511F481E004C0813B910511F480E0F0
:10099000D0DCF7018491FE01B490F801D490DD2001
:1009A00069F0811171DCED2DF0E0EE0FFF1FEE5DBF
:1009B000FE4FA591B4918C918B2141F561EB82E1C1
:1009C00092E09DDDE1DC2B013C0188EC882E912C2E
:1009D000A12CB12CD9DCDC01CB0184199509A60925
:1009E000B709883E9340A105B105A0F3F1E08F1A45
:1009F0009108A108B10828EE420E23E0521E611CA6
:100A0000711C81149104A104B10421F7E5DDAFCF7D
:100A1000E2E1F2E01382128288EE93E0A0E0B0E01F
:100A200084839583A683B78384E092E09183808357
:100A300085EC90E09587848784EC90E097878687A3
:100A400080EC90E0918B808B81EC90E0938B828B9B
:100A500082EC90E0958B848B86EC90E0978B868B74
:100A6000118E128E138E148E0895EE0FFF1F881FA5
:100A70008BBF0790F691E02D199481E090E0F894F7
:060A800000C0F894FFCF56
:100A8600000000007F02E9011702CB02480226029D
:020A96003A0222
:00000001FF
