:100000000DC100003AC1000038C1000036C1000037
:1000100034C1000032C1000030C100002EC1000018
:100020002CC100002AC1000028C1000026C1000028
:1000300024C1000022C1000020C100001EC1000038
:100040001CC100001AC1000018C1000016C1000048
:1000500014C1000012C1000010C1000074C30000F0
:100060000CC1000042C4000017C4000006C100001B
:1000700004C1000002C1000000C10000FEC0000079
:10008000FCC00000FAC00000F8C00000F6C000008C
:10009000CDC30000A2C30000F0C00000EEC000000D
:1000A000ECC00000EAC00000E8C00000E6C00000AC
:1000B000E4C00000E2C00000E0C00000DEC00000BC
:1000C000DCC00000DAC00000D8C00000D6C00000CC
:1000D000D4C00000D2C00000D0C00000CEC00000DC
:1000E000CCC0000068016B015A015E016201A201EF
:1000F0006F01730179017D01810187018B018F01FE
:10010000A201950199019D016364696E6F70737519
:1001100078585B0000002100240027002A002D00F1
:100120003000330001010000040107010A01000052
:100130002200250028002B002E003100340002018F
:100140000000050108010B01050505050705080864
:100150000808020202020A0A080804040404010151
:100160000101010101010303030303030303040766
:1001700007070C0C0C0C0C0C0C0C020202020606FD
:100180000606060606060B0B0B0B0B0B0B0B0102F0
:100190001020200808102040102040800201020199
:1001A0000804020101020408102040808040201051
:1001B00008040201800402018040201008040201AA
:1001C0000804020101020408102040800102040812
:1001D0001020408000000A0B02090C0D0E080703D6
:1001E000040100000000000000000000000000000A
:1001F00000000000000000000000000000000000FF
:1002000012111000000000000000000000000000BB
:1002100000000000000000000000AB0411241FBE1D
:10022000CFEFD1E2DEBFCDBF00E00CBF12E0A0E017
:10023000B2E0E4ECFCE100E00BBF02C007900D92DD
:10024000A233B107D9F723E0A2E3B2E001C01D92C7
:10025000A138B207E1F711E0CEE0D1E000E005C03F
:1002600021970109802FFE01CCD5CD30D10780E048
:100270000807B1F7C3D30C94600EC2CE382FE8EE56
:10028000F1E04491E2EAF1E02491ECE5F1E09491AF
:10029000992309F46BC0442309F454C050E0FA01D7
:1002A0003197E231F10508F04DC08827EE58FF4F35
:1002B0008F4FA7C5809180008F7707C08091800005
:1002C0008F7D03C080918000877F809380003AC03B
:1002D00084B58F7702C084B58F7D84BD33C0809193
:1002E000B0008F7703C08091B0008F7D8093B00005
:1002F00029C0809190008F7707C0809190008F7DFA
:1003000003C080919000877F809390001BC08091F4
:10031000A0008F7707C08091A0008F7D03C08091DF
:10032000A000877F8093A0000DC0809120018F776F
:1003300007C0809120018F7D03C080912001877FBD
:1003400080932001E92FF0E0EE0FFF1FE25DFE4FEA
:10035000A591B4919FB7F894311104C08C91209568
:10036000282302C0EC912E2B2C939FBF08953FB7FA
:10037000F89480913F0290914002A0914102B09187
:10038000420226B5A89B05C02F3F19F00196A11D7A
:10039000B11D3FBFBA2FA92F982F8827820F911D1B
:1003A000A11DB11DBC01CD0142E0660F771F881F62
:1003B000991F4A95D1F708958F929F92AF92BF925D
:1003C000CF92DF92EF92FF926B017C01D0DF4B0165
:1003D0005C01C114D104E104F104E9F0C8DFDC01DF
:1003E000CB0188199909AA09BB09883E9340A10548
:1003F000B10578F321E0C21AD108E108F10888EECE
:10040000880E83E0981EA11CB11CC114D104E10424
:10041000F10421F7DECFFF90EF90DF90CF90BF90F7
:10042000AF909F908F900895CF92DF92EF92FF92BE
:100430000F931F93CF93DF936C017A018B01C0E080
:10044000D0E0CE15DF0581F0D8016D918D01D60188
:10045000ED91FC910190F081E02DC6011995892B59
:1004600011F02196EECF7E01C701DF91CF911F9150
:100470000F91FF90EF90DF90CF900895089580E066
:1004800090E00895FC01538D448D252F30E0842F9A
:1004900090E0821B930B541710F0CF9608950197AC
:1004A0000895FC01918D828D981761F0828DDF0196
:1004B000A80FB11D5D968C91928D9F5F9F73928F57
:1004C00090E008958FEF9FEF0895FC01918D828D4C
:1004D000981731F0828DE80FF11D858D90E0089519
:1004E0008FEF9FEF0895FC01918D228D892F90E071
:1004F000805C9F4F821B91098F739927089583E435
:1005000092E0F1DF21E0892B09F420E0822F0895A9
:1005100080EE92E0E8DF21E0892B09F420E0822FD1
:100520000895FC01848DDF01A80FB11DA35ABF4FB0
:100530002C91848D90E001968F739927848FA689E2
:10054000B7892C93A089B1898C91837080648C9336
:10055000938D848D981306C00288F389E02D8081E5
:100560008F7D80830895EF92FF920F931F93CF9317
:10057000DF93EC0181E0888F9B8D8C8D981305C0F3
:10058000E889F989808185FD25C0F62E0B8D10E064
:100590000F5F1F4F0F731127E02E8C8DE8120BC0D9
:1005A0000FB607FCFACFE889F989808185FFF5CF7E
:1005B000CE01B7DFF2CF8B8DFE01E80FF11DE35ABC
:1005C000FF4FF0829FB7F8940B8FEA89FB898081F7
:1005D00080620AC09FB7F894EE89FF896083E8893A
:1005E000F98980818370806480839FBF81E090E07F
:1005F000DF91CF911F910F91FF90EF900895CF93CE
:10060000DF93EC01888D8823C1F0EA89FB89808122
:1006100085FD05C0A889B9898C9186FD0EC00FB6ED
:1006200007FCF5CF808185FFF2CFA889B9898C912D
:1006300085FFEDCFCE0175DFE8CFDF91CF91089533
:1006400080E090E0892B19F063DF811120C080E009
:1006500090E0892B19F053DF81111CC080E090E0FD
:10066000892B41F080E090E0892B21F00E9400006E
:10067000811113C080E090E0892BA1F080E090E030
:10068000892B81F00E94000081110AC008950E9408
:100690000000DDCF0E940000E1CF0E940000EACF01
:1006A0000C94000008956115710549F0FB0101905B
:1006B0000020E9F73197AF01461B570BB5CE80E01C
:1006C00090E008950F931F93CF93DF93CDB7DEB7DC
:1006D00064970FB6F894DEBF0FBECDBF182F092F59
:1006E00081E0CCDD6CE370E080E090E065DE88E1E5
:1006F00092E09F938F930F931F938DE192E09F93CE
:100700008F938E010F5F1F4F1F930F93A7D4B801D4
:1007100083E492E0C8DF6CE370E080E090E04CDEC0
:1007200080E0ACDD0FB6F894DEBF0FBECDBF64969F
:100730000FB6F894DEBF0FBECDBFDF91CF911F91F2
:100740000F91089587D41F920F920FB60F92112424
:100750002F933F938F939F93AF93BF9380913B02CF
:1007600090913C02A0913D02B0913E0230913A023C
:1007700023E0230F2D3720F40196A11DB11D05C0E4
:1007800026E8230F0296A11DB11D20933A02809303
:100790003B0290933C02A0933D02B0933E028091B5
:1007A0003F0290914002A0914102B0914202019615
:1007B000A11DB11D80933F0290934002A09341027E
:1007C000B0934202BF91AF919F918F913F912F9132
:1007D0000F900FBE0F901F9018951F920F920FB69B
:1007E0000F9211240BB60F922F933F934F935F9369
:1007F0006F937F938F939F93AF93BF93EF93FF93E9
:1008000083E492E08EDEFF91EF91BF91AF919F91D3
:100810008F917F916F915F914F913F912F910F90A9
:100820000BBE0F900FBE0F901F9018951F920F9246
:100830000FB60F9211240BB60F922F938F939F93A5
:10084000EF93FF93E0915302F09154028081E09185
:100850005902F0915A0282FD12C0908180915C028F
:100860008F5F8F7320915D02821751F0E0915C02DF
:10087000F0E0ED5BFD4F958F80935C0201C08081BD
:10088000FF91EF919F918F912F910F900BBE0F9041
:100890000FBE0F901F9018951F920F920FB60F92D8
:1008A00011240BB60F922F933F934F935F936F9347
:1008B0007F938F939F93AF93BF93EF93FF9380EEBC
:1008C00092E02FDEFF91EF91BF91AF919F918F91B9
:1008D0007F916F915F914F913F912F910F900BBE40
:1008E0000F900FBE0F901F9018951F920F920FB68A
:1008F0000F9211240BB60F922F938F939F93EF9328
:10090000FF93E091F002F091F1028081E091F60214
:10091000F091F70282FD12C090818091F9028F5F01
:100920008F732091FA02821751F0E091F902F0E002
:10093000E052FD4F958F8093F90201C08081FF91B5
:10094000EF919F918F912F910F900BBE0F900FBE43
:100950000F901F901895E3E4F2E01382128248EEA4
:1009600053E060E070E044835583668377838AE0D8
:1009700092E0918380832DEC30E0358724872CEC46
:1009800030E03787268728EC30E0318B208B29EC4C
:1009900030E0338B228B2AEC30E0358B248B2EEC2D
:1009A00030E0378B268B118E128E138E148EE0EE74
:1009B000F2E01382128244835583668377839183A6
:1009C000808385EC90E09587848784EC90E097871E
:1009D000868780EC90E0918B808B81EC90E0938B0C
:1009E000828B82EC90E0958B848B86EC90E0978BE9
:1009F000868B118E128E138E148E0895CF93DF93F3
:100A0000CDB7DEB76E970FB6F894DEBF0FBECDBF81
:100A1000789484B5826084BD84B5816084BD85B5D9
:100A2000826085BD85B5816085BD80916E008160E5
:100A300080936E001092810080918100826080938B
:100A4000810080918100816080938100809180008D
:100A50008160809380008091B10084608093B100B8
:100A60008091B00081608093B0008091910082609D
:100A7000809391008091910081608093910080919A
:100A800090008160809390008091A10082608093AB
:100A9000A1008091A10081608093A1008091A000BD
:100AA00081608093A0008091210182608093210168
:100AB00080912101816080932101809120018160DA
:100AC0008093200180917A00846080937A008091E5
:100AD0007A00826080937A0080917A0081608093AE
:100AE0007A0080917A00806880937A001092C10029
:100AF000E0915302F091540222E02083E0914F02F2
:100B0000F09150021082E0915102F09152028AE875
:100B1000808310925B02E0915702F091580296E0B8
:100B20009083E0915502F09156028081806180832C
:100B3000E0915502F0915602808188608083E091B7
:100B40005502F0915602808180688083E0915502C1
:100B5000F091560280818F7D8083E091F002F091C8
:100B6000F1022083E091EC02F091ED0281E08083BC
:100B7000E091EE02F091EF0280EA80831092F80299
:100B8000E091F402F091F5029083E091F202F0918D
:100B9000F302808180618083E091F202F091F302A0
:100BA000808188608083E091F202F091F30280817D
:100BB00080688083E091F202F091F30280818F7D62
:100BC0008083E2EAF1E02491ECE5F1E0849188236E
:100BD00099F090E0880F991FFC01EC5EFE4FA59103
:100BE000B491FC01E25DFE4F859194918FB7F8942A
:100BF000EC91E22BEC938FBF8AE2C82E82E0D82ED4
:100C00008E010F5F1F4F94E3A92E92E0B92E26E2CA
:100C1000822E22E0922E33E2E32E32E0F32E80EE9B
:100C200092E061DC892B71F080EE92E03ADC813356
:100C3000910519F487E590E004C0C29719F48DE49A
:100C400090E040DD10923902109238021092340286
:100C500010923502109236021092370283E492E02D
:100C600042DC892B09F488C082E390E0D2D09093D3
:100C700033028093320263E070E080E090E09CDB1E
:100C800083E492E030DC892B09F463C083E492E0D2
:100C900008DC4091320250913302209138023091A9
:100CA00039028B3319F5FA01E20FF31F108210920B
:100CB0003902109238021F930F93FF92EF925F93C5
:100CC0004F93FAD10F900F900F900F900F900F90BD
:100CD00089819A810197A1F283E492E004DC892B57
:100CE00009F488C083E492E0DCDBF6CF8A3369F450
:100CF000FA01E20FF31F10821092390210923802AB
:100D00001F930F93FF92EF920EC08132B1F4FA015C
:100D1000E20FF31F10821092390210923802BF9234
:100D2000AF929F928F925F934F93C6D10F900F9087
:100D30000F900F900F900F90A3CFB9016F5F7F4F6F
:100D40007093390260933802FA01E20FF31F808337
:100D500097CF2091320230913302809138029091E6
:100D60003902AC014F5F5F4F509339024093380214
:100D7000F901E80FF91F10822091380230913902F1
:100D80006091320270913302809134029091350269
:100D9000A0913602B091370212161306ECF4FB0153
:100DA00040814423C9F00097A105B105A9F07F93C4
:100DB0006F93BF93AF939F938F93DF92CF921F93C5
:100DC0000F934CD1B80180EE92E06DDC0FB6F89431
:100DD000DEBF0FBECDBF0EC0892B8A2B8B2B51F4EB
:100DE000FB018081882331F0121613061CF480EE7B
:100DF00092E059DC8091320290913302A2D020DC43
:100E00000ECFEE0FFF1F881F8BBF0790F691E02DCE
:100E100019940F931F93CF93DF938230910510F4B1
:100E200082E090E0E0917F03F091800320E030E0E9
:100E3000A0E0B0E0309719F1408151810281138127
:100E400048175907C8F08417950769F4109731F0CF
:100E500012960C93129713961C9327C000937F034E
:100E60001093800322C02115310519F04217530752
:100E700018F49A01BD01EF01DF01F801DBCF211564
:100E80003105F9F0281B390B2430310580F48A81B3
:100E90009B816115710521F0FB019383828304C05E
:100EA0009093800380937F03FE01329644C0FE013D
:100EB000E20FF31F819391932250310939832883E4
:100EC0003AC020917D0330917E03232B41F4209181
:100ED00002023091030230937E0320937D03209120
:100EE0000002309101022115310541F42DB73EB7C2
:100EF0004091040250910502241B350BE0917D03C3
:100F0000F0917E03E217F307A0F42E1B3F0B281786
:100F1000390778F0AC014E5F5F4F2417350748F072
:100F20004E0F5F1F50937E0340937D0381939193F7
:100F300002C0E0E0F0E0CF01DF91CF911F910F916F
:100F40000895CF93DF93009709F481C0FC01329795
:100F500013821282A0917F03B0918003109781F4D5
:100F600020813181820F931F20917D0330917E0378
:100F70002817390751F5F0937E03E0937D0367C08E
:100F8000ED0120E030E0CE17DF0740F44A815B81BD
:100F90009E0141155105F1F0EA01F5CFD383C283DB
:100FA00040815181840F951FC817D90759F4888152
:100FB0009981840F951F0296918380838A819B81FA
:100FC000938382832115310529F4F0938003E09304
:100FD0007F033DC0E901FB83EA8349915991C40F26
:100FE000D51FEC17FD0761F480819181840F951F57
:100FF0000296E90199838883828193819B838A8306
:10100000E0E0F0E012968D919C911397009719F013
:10101000FD01DC01F7CF8D919C9111979D012E5F11
:101020003F4F820F931F20917D0330917E0328173D
:10103000390769F4309729F41092800310927F03E6
:1010400002C013821282B0937E03A0937D03DF91CE
:10105000CF91089581E090E0F89432C60F931F93EA
:10106000CF93DF93CDB7DEB72E970FB6F894DEBFE0
:101070000FBECDBF0E891F8986E08C831A8309833A
:101080008FEF9FE79E838D83AE01465E5F4F688D35
:10109000798DCE01019631D0EF81F885E00FF11FF7
:1010A00010822E960FB6F894DEBF0FBECDBFDF9133
:1010B000CF911F910F910895CF93DF93CDB7DEB7F6
:1010C0002E970FB6F894DEBF0FBECDBF85E08C83A0
:1010D0008C899D899A838983AE01485E5F4F6E89B2
:1010E0007F89CE010196B8D32E960FB6F894DEBF55
:1010F0000FBECDBFDF91CF9108952F923F924F92B7
:101100005F926F927F928F929F92AF92BF92CF9297
:10111000DF92EF92FF920F931F93CF93DF93CDB7A0
:10112000DEB72B970FB6F894DEBF0FBECDBF6C01B4
:101130007B018A01FC0117821682838181FFBFC176
:10114000CE0101963C01F6019381F70193FD859153
:1011500093FF81917F01882309F4ADC1853239F471
:1011600093FD859193FF81917F01853221F4B60132
:1011700090E0F0D4E8CF912C212C312CFFE1F31535
:10118000D8F08B3279F038F4803279F08332A1F4E0
:10119000232D20611DC08D3261F0803369F4232D31
:1011A000216016C0832D8260382EE32DE4603E2E30
:1011B0002AC0F32DF8601DC037FC2DC020ED280F8C
:1011C0002A3040F08E32B9F436FC75C1232D2064EC
:1011D000322E19C036FE06C08AE0989E200D1124DA
:1011E000922E11C0EAE02E9E200D1124222EF32D06
:1011F000F0623F2E08C08C3621F4832D8068382E93
:1012000002C0883641F4F70193FD859193FF8191E7
:101210007F018111B3CF982F9F7D9554933028F48F
:101220000C5F1F4F9FE399830DC0833631F08337E6
:1012300071F0833509F055C020C0F80180818983A1
:101240000E5F1F4F88248394912C530112C02801F4
:10125000F2E04F0E511CF801A080B18036FE03C0B1
:10126000692D70E002C06FEF7FEFC5012AD44C01F9
:101270008201F32DFF773F2E15C0280122E0420E98
:10128000511CF801A080B18036FE03C0692D70E0CA
:1012900002C06FEF7FEFC50109D44C01F32DF06858
:1012A0003F2E820133FC19C0822D90E088169906EA
:1012B000A0F4B60180E290E04DD42A94F5CFF50178
:1012C00037FC859137FE81915F01B60190E042D4F1
:1012D00021102A9421E0821A91088114910479F74F
:1012E000E1C0843611F0893639F5F80137FE07C0C0
:1012F00060817181828193810C5F1F4F08C0608182
:101300007181072E000C880B990B0E5F1F4FF32D78
:10131000FF763F2E97FF09C0909580957095619557
:101320007F4F8F4F9F4FF0683F2E2AE030E0A301A0
:1013300066D4882E861844C0853731F4232D2F7E3D
:10134000B22E2AE030E025C0932D997FB92E8F363A
:10135000C1F018F4883579F0AEC0803719F08837BD
:1013600021F0A9C0E92FE061BE2EB4FE0DC0FB2D17
:10137000F460BF2E09C034FE0AC0292F2660B22EA9
:1013800006C028E030E005C020E130E002C020E1E6
:1013900032E0F801B7FE07C06081718182819381DC
:1013A0000C5F1F4F06C06081718180E090E00E5F8E
:1013B0001F4FA30124D4882E8618FB2DFF773F2EC4
:1013C00036FE0DC0232D2E7FA22E891458F434FE34
:1013D0000BC032FC09C0832D8E7EA82E05C0B82C10
:1013E000A32C03C0B82C01C0B92CA4FE0FC0FE0171
:1013F000E80DF11D8081803321F49A2D997EA92E6C
:1014000009C0A2FE06C0B394B39404C08A2D8678A6
:1014100009F0B394A3FC10C0A0FE06C0B21480F47F
:10142000280C922C9B180DC0B21458F4B60180E21F
:1014300090E090D3B394F8CFB21418F42B1802C0F4
:10144000982C212CA4FE0FC0B60180E390E082D33B
:10145000A2FE16C0A1FC03C088E790E002C088E5A8
:1014600090E0B6010CC08A2D867851F0A1FE02C032
:101470008BE201C080E2A7FC8DE2B60190E06AD366
:10148000891430F4B60180E390E064D39A94F8CFE5
:101490008A94F301E80DF11D8081B60190E05AD3E2
:1014A0008110F6CF222009F44ECEB60180E290E002
:1014B00051D32A94F7CFF6018681978102C08FEF2E
:1014C0009FEF2B960FB6F894DEBF0FBECDBFDF9116
:1014D000CF911F910F91FF90EF90DF90CF90BF9031
:1014E000AF909F908F907F906F905F904F903F90C4
:1014F0002F90089520FD09C0FC0123FD05C022FFA7
:1015000002C07383628351834083089544FD17C0F2
:1015100046FD17C0AB01BC01DA01FB01AA0FBB1FDE
:10152000EE1FFF1F1094D1F74A0F5B1F6E1F7F1F26
:10153000CB01BA01660F771F881F991F09C033E0DE
:1015400001C034E0660F771F881F991F3150D1F713
:10155000620F711D811D911D08950F931F93CF93ED
:10156000DF938C01C801B8D2EC0197FD06C08BD285
:10157000892BC1F7B801CE0129D3CE01DF91CF91DC
:101580001F910F9108958F929F92AF92BF92EF9209
:10159000FF920F931F93CF93DF938C01D62F7A0185
:1015A000B22E9AD29C0133272B32310531F02D32E5
:1015B000310559F48B2D8068B82ED15011F480E09C
:1015C00061C0C80189D297FDFACFCB2DCD7F2B2DDD
:1015D0002073F9F48033E9F4AA24AA94AD0E09F437
:1015E0003EC0C80179D297FD3AC09C012F7D3327B8
:1015F0002835310541F4C264D25089F1C8016CD25A
:1016000097FF07C02CC0B6FE02C0C26001C0C26115
:10161000DA2D812C912C540120ED280F283078F000
:10162000C4FF03C0B801D2D217C02A3040F0C6FFB1
:10163000F9CF2F7D3FEE320F3630A0F727504C2FD9
:10164000C501B40163DF4B015C01C260D15051F0B0
:10165000C80142D297FFE0CFC1FD04C0B0CF812CBA
:10166000912C5401C7FF08C0B094A094909480942A
:10167000811C911CA11CB11C2C2FB501A401C70118
:1016800039DF81E0DF91CF911F910F91FF90EF90B3
:10169000BF90AF909F908F9008955F926F927F92CE
:1016A0008F929F92AF92BF92CF92DF92EF92FF9272
:1016B0000F931F93CF93DF93CDB7DEB7A0970FB6ED
:1016C000F894DEBF0FBECDBF5C01962E7A01F90102
:1016D0008E010F5F1F4F680180E2D8011D928A952D
:1016E000E9F7D50113968C9080E090E0612C712C85
:1016F00030E061E070E083FC259183FE21918F0151
:10170000522E211103C080E090E090C02E3511F4DC
:10171000009751F1432F50E0481759073CF42D35FD
:1017200059F12D3219F4772009F103C0772009F41B
:1017300068C0452D469546954695D601A40FB11D26
:10174000452D47708B0102C0000F111F4A95E2F72B
:10175000A8015C91452B4C93651459F0561410F474
:101760005394E7CF5A94E5CF31E004C077247394C3
:1017700001C0712C0196BFCF772019F08E81806255
:101780008E83311103C08824839417C0F6019E0113
:101790002F5D3F4F8081809581932E173F07D1F7B2
:1017A000F2CFE114F10429F0D7018C93F7013196BF
:1017B0007F019A94812C9920E9F0C5018DD197FD84
:1017C00017C0FC01FF2723E0F595E7952A95E1F77F
:1017D000EC0DFD1D208130E0AC014770552702C0A3
:1017E000359527954A95E2F720FDDBCFB501EED17F
:1017F000811089CFE114F10411F0D7011C92C801C6
:1018000015C0422F469546954695D601A40FB11DA9
:10181000422F47708B0102C0000F111F4A95E2F75B
:10182000A8015C91452B4C93622EA4CFA0960FB6D5
:10183000F894DEBF0FBECDBFDF91CF911F910F9106
:10184000FF90EF90DF90CF90BF90AF909F908F90E0
:101850007F906F905F9008955F926F927F928F92CA
:101860009F92AF92BF92CF92DF92EF92FF920F932F
:101870001F93CF93DF936C01EB015A01FC01178298
:101880001682512CF601E380FE01E3FC8591E3FE14
:101890008191182FEF01882309F4E0C090E0F3D084
:1018A000892B19F0C60159DEEDCF153241F4FE0146
:1018B000E3FC1591E3FE1191EF01153271F4C601BD
:1018C0000BD197FDC9C0412F50E09C01332724174D
:1018D0003507C1F2B6017AD1C1C01A3239F4E3FC3E
:1018E0001591E3FE1191EF0101E001C000E0F12C40
:1018F00020ED210F2A3078F402606F2D70E080E037
:1019000090E040E203DEF62EFE01E3FC1591E3FEDB
:101910001191EF01EDCF01FF03C0F11003C09EC094
:10192000FF24FA94183619F01C3651F010C0FE014D
:10193000E3FC1591E3FE1191EF01183641F40860C4
:101940000460FE01E3FC1591E3FE1191EF01112308
:1019500009F484C0612F70E088E091E09CD0892B6D
:1019600009F47CC000FD07C0F50180809180C501AD
:1019700002965C0102C0812C912C1E3649F4F601BE
:101980004681578160E070E0202FC401B3DD7ACF3B
:101990001336A1F401FD02C0FF24F394C6019CD0CC
:1019A00097FD5AC08114910429F0F4018083C40189
:1019B00001964C01FA94F110F1CF4AC01B3551F455
:1019C0009E01A4016F2DC60168DEEC01892B09F090
:1019D0003FC039C0C601C1DD97FD3EC01F3649F189
:1019E00028F4143621F1193639F125C0133771F076
:1019F0001537E9F020C08114910429F0F4016082C8
:101A0000C40101964C01FA94FF2059F0C60164D03C
:101A10003C0197FD06C037D0892B69F3B601C3019D
:101A2000D5D081149104A1F0F401108211C000629C
:101A300003C0006101C00064202FA4016F2DC60106
:101A4000A2DD811105C0F6018381807329F406C0EF
:101A500000FD18CF539416CF552019F0852D90E036
:101A600002C08FEF9FEFDF91CF911F910F91FF90F9
:101A7000EF90DF90CF90BF90AF909F908F907F902E
:101A80006F905F900895911118C1803219F08950BC
:101A90008550D0F70895FC010590061621F000202E
:101AA000D9F7C00108953197CF010895FC01059041
:101AB000615070400110D8F7809590958E0F9F1F50
:101AC0000895FC016150704001900110D8F7809595
:101AD00090958E0F9F1F0895CF93DF93EC012B817C
:101AE00020FF33C026FF0AC02F7B2B838E819F816E
:101AF00001969F838E838A8190E029C022FF0FC0C8
:101B0000E881F9818081082E000C990B009719F467
:101B100020622B831AC03196F983E8830EC0EA85D0
:101B2000FB85199597FF09C02B81019611F080E282
:101B300001C080E1822B8B8308C02E813F812F5F03
:101B40003F4F3F832E83992702C08FEF9FEFDF9196
:101B5000CF9108950F931F93CF93DF93FB012381C0
:101B600021FD03C08FEF9FEF2CC022FF16C04681DE
:101B70005781248135814217530744F4A081B181F4
:101B80009D012F5F3F4F318320838C9326813781C6
:101B90002F5F3F4F3783268314C08B01EC01FB017D
:101BA0000084F185E02D1995892BE1F6D801169670
:101BB0008D919C911797019617969C938E931697EB
:101BC000CE01DF91CF911F910F910895FB012381E9
:101BD00020FF12C026FD10C08F3F3FEF930761F03A
:101BE00082832F7D20642383268137812150310910
:101BF00037832683992708958FEF9FEF0895FA0181
:101C0000AA27283051F1203181F1E8946F936E7F3B
:101C10006E5F7F4F8F4F9F4FAF4FB1E03ED0B4E02C
:101C20003CD0670F781F891F9A1FA11D680F791F6D
:101C30008A1F911DA11D6A0F711D811D911DA11D7E
:101C400020D009F468943F912AE0269F112430198E
:101C5000305D3193DEF6CF010895462F4770405D29
:101C60004193B3E00FD0C9F7F6CF462F4F70405DD8
:101C70004A3318F0495D31FD4052419302D0A9F733
:101C8000EACFB4E0A6959795879577956795BA952D
:101C9000C9F700976105710508959B01AC010A2EF3
:101CA00006945795479537952795BA95C9F7620FCA
:101CB000731F841F951FA01D0895992788270895D5
:041CC000F894FFCFC6
:101CC40000008103800000000000B30214024202FD
:101CD400FF02730251026502476976650025643B81
:101CE400257300256400256C780023256C783B253A
:021CF40073007B
:00000001FF
