:100000000C9435000C945D000C945D000C945D0024
:100010000C945D000C945D000C945D000C945D00EC
:100020000C945D000C945D000C945D000C945D00DC
:100030000C945D000C945D000C945D000C945D00CC
:100040000C9427020C945D000C9497020C9471029E
:100050000C945D000C945D000C945D000C945D00AC
:100060000C945D000C945D00560411241FBECFEF6C
:10007000D8E0DEBFCDBF21E0AEE2B1E001C01D920D
:10008000A93DB207E1F711E0A0E0B1E0E2E1FEE056
:1000900002C005900D92AE32B107D9F710E0C5E36A
:1000A000D0E004C02197FE010E94DC04C433D107D4
:1000B000C9F70E94C9020C9407070C9400003FB7CF
:1000C000F8948091340190913501A0913601B0915E
:1000D000370126B5A89B05C02F3F19F00196A11D39
:1000E000B11D3FBFBA2FA92F982F8827820F911DCE
:1000F000A11DB11DBC01CD0142E0660F771F881F15
:10010000991F4A95D1F70895CF92DF92EF92FF920F
:100110000F931F93CF93DF936C017A018B01C0E0A3
:10012000D0E0CE15DF0581F0D8016D918D01D601AB
:10013000ED91FC910190F081E02DC6010995892B8C
:1001400011F02196EECF7E01C701DF91CF911F9173
:100150000F91FF90EF90DF90CF900895089580E089
:1001600090E00895FC01538D448D252F30E0842FBD
:1001700090E0821B930B541710F0CF9608950197CF
:100180000895FC01918D828D981761F0828DDF01B9
:10019000A80FB11D5D968C91928D9F5F9F73928F7A
:1001A00090E008958FEF9FEF0895FC01918D828D6F
:1001B000981731F0828DE80FF11D858D90E008953C
:1001C0008FEF9FEF0895FC01918D228D892F90E094
:1001D000805C9F4F821B91098F739927089588E354
:1001E00091E00E94E30021E0892B09F420E0822FB6
:1001F0000895FC01848DDF01A80FB11DA35ABF4FE4
:100200002C91848D90E001968F739927848FA68915
:10021000B7892C93A089B1898C91837080648C9369
:10022000938D848D981306C00288F389E02D808118
:100230008F7D80830895EF92FF920F931F93CF934A
:10024000DF93EC0181E0888F9B8D8C8D981305C026
:10025000E889F989808185FD26C0F62E0B8D10E096
:100260000F5F1F4F0F731127E02E8C8DE8120CC00B
:100270000FB607FCFACFE889F989808185FFF5CFB1
:10028000CE010E94F900F1CF8B8DFE01E80FF11D28
:10029000E35AFF4FF0829FB7F8940B8FEA89FB89EE
:1002A000808180620AC09FB7F894EE89FF896083DD
:1002B000E889F98980818370806480839FBF81E0B1
:1002C00090E0DF91CF911F910F91FF90EF900895F3
:1002D000CF93DF93EC01888D8823C9F0EA89FB89ED
:1002E000808185FD05C0A889B9898C9186FD0FC0E4
:1002F0000FB607FCF5CF808185FFF2CFA889B989B9
:100300008C9185FFEDCFCE010E94F900E7CFDF9100
:10031000CF91089580E090E0892B29F00E94EF00B2
:1003200081110C94000008958F929F92AF92BF921A
:100330000F931F93CF93DF93CDB7DEB7A1970FB67F
:10034000F894DEBF0FBECDBF19A2423008F44AE0D8
:100350008E010F5D1F4F842E912CA12CB12CA50175
:1003600094010E94BA04E62FB901CA010150110993
:10037000EA3014F4E05D01C0E95CD801EC93232B72
:10038000242B252B61F70115110571F0F80101905F
:100390000020E9F73197AF01401B510BB80188E30A
:1003A00091E00E94840002C080E090E0A1960FB628
:1003B000F894DEBF0FBECDBFDF91CF911F910F919B
:1003C000BF90AF909F908F9008950E94C906EF92C2
:1003D000FF920F931F93CF93DF93EC017B018A0170
:1003E00088819981009729F02A813B81241735075C
:1003F000F8F4B8016F5F7F4F0E940306009759F031
:10040000998388831B830A832C813D81232B81F46C
:10041000FC0110820DC088819981009711F00E9423
:100420007A05198218821D821C821B821A8207C0DB
:100430001D830C83B701888199810E94D706CE0164
:10044000DF91CF911F910F91FF90EF9008951F9230
:100450000F920FB60F9211242F933F938F939F9378
:10046000AF93BF938091300190913101A0913201FF
:10047000B091330130912F0123E0230F2D3720F469
:100480000196A11DB11D05C026E8230F0296A11DEE
:10049000B11D20932F018093300190933101A093DF
:1004A0003201B09333018091340190913501A091D4
:1004B0003601B09137010196A11DB11D8093340121
:1004C00090933501A0933601B0933701BF91AF915E
:1004D0009F918F913F912F910F900FBE0F901F9082
:1004E00018951F920F920FB60F9211242F933F93DE
:1004F0004F935F936F937F938F939F93AF93BF932C
:10050000EF93FF9388E391E00E94F900FF91EF9150
:10051000BF91AF919F918F917F916F915F914F911B
:100520003F912F910F900FBE0F901F9018951F9223
:100530000F920FB60F9211242F938F939F93EF93E7
:10054000FF93E0914801F09149018081E0914E01D3
:10055000F0914F0182FD12C09081809151018F5F17
:100560008F7320915201821751F0E0915101F0E018
:10057000E85CFE4F958F8093510101C08081FF910F
:10058000EF919F918F912F910F900FBE0F901F9021
:100590001895CF93DF93CDB7DEB768970FB6F89471
:1005A000DEBF0FBECDBF789484B5826084BD84B5B4
:1005B000816084BD85B5826085BD85B5816085BD5E
:1005C00080916E00816080936E0010928100809116
:1005D000810082608093810080918100816080939E
:1005E0008100809180008160809380008091B100C3
:1005F00084608093B1008091B00081608093B000EE
:1006000080917A00846080937A0080917A00826081
:1006100080937A0080917A00816080937A00809143
:100620007A00806880937A001092C1008FEF87B9BA
:1006300018B88AB91BB8E0914801F091490182E0ED
:100640008083E0914401F09145011082E0914601E0
:10065000F09147018FEC808310925001E0914C01A2
:10066000F0914D0186E08083E0914A01F0914B01C9
:10067000808180618083E0914A01F0914B0180810B
:1006800088608083E0914A01F0914B01808180680D
:100690008083E0914A01F0914B0180818F7D8083BE
:1006A00096E0D92E7E0127E0E20EF11C1C8A1B8AFF
:1006B0001E8A1D8A188E1F8A48E050E062E271E0AF
:1006C000CE0143960E94E7011E861D86188A1F866A
:1006D0001A8A198A6B897C896115710531F04F89F5
:1006E000588DCE010D960E94E701F7012D2D119234
:1006F0002A95E9F780E8C82E1A8219821C821B828B
:100700001E821D8241E050E069E271E0CE01019657
:100710000E94E70189899A89A980BA80892B61F0B2
:100720008D849E84B501C4010E94ED06009721F0DE
:100730008C010819190902C00FEF1FEFC5010E94B3
:100740007A050F3F8FEF180729F149895A89041755
:100750001507C0F48D859E85415051095A8B498BF0
:10076000401B510BB8016F5F7F4F680F791F800FDF
:10077000911F0E94DE06ED85FE8589899A89E80F22
:10078000F91F1082E6E0F0E0EC0FFD1FE00FF11F13
:10079000C082B2CF09891A89073011050CF07BC0DD
:1007A0008EEF88B9CC24C39417FD75C0F701E00F14
:1007B000F11F7080872D90E029893A89021713076D
:1007C00020F4ED85FE85309729F410922E01EEE29B
:1007D000F1E002C0E00FF11F6081009729F488E387
:1007E00091E00E941B011EC0862E660F9908AA0880
:1007F000BB080A9791F4B7FE0EC06DE288E391E062
:100800000E941B0166277727CB01681979098A099D
:100810009B094AE005C04AE001C0472DC501B4016B
:100820000E94940142E050E06BE271E088E391E0C5
:100830000E94840089899A890817190720F4ED8598
:10084000FE85309729F410922E01EEE2F1E002C00D
:10085000E00FF11FE0810E2E000CFF0BE851FF4F5F
:100860008081782A7BB80E945F004B015C010E9466
:100870005F00DC01CB0188199909AA09BB09883EF0
:100880009340A105B10598F388B1880F8C2988B9E8
:100890000150110989CF8D859E850E947A058B892B
:1008A0009C890E947A050E948A0100CFE8E3F1E06A
:1008B0001382128288EE93E0A0E0B0E084839583F7
:1008C000A683B7838AE091E09183808385EC90E0F2
:1008D0009587848784EC90E09787868780EC90E00A
:1008E000918B808B81EC90E0938B828B82EC90E0FB
:1008F000958B848B86EC90E0978B868B118E128E75
:10090000138E148E08952F923F924F925F926F92A2
:100910007F928F929F92AF92BF92CF92DF92EF928F
:10092000FF920F931F93CF93DF93CDB7DEB7CA1B10
:10093000DB0B0FB6F894DEBF0FBECDBF09942A883B
:10094000398848885F846E847D848C849B84AA84E3
:10095000B984C884DF80EE80FD800C811B81AA8170
:10096000B981CE0FD11D0FB6F894DEBF0FBECDBF3B
:10097000ED010895A1E21A2EAA1BBB1BFD010DC0BB
:10098000AA1FBB1FEE1FFF1FA217B307E407F5073F
:1009900020F0A21BB30BE40BF50B661F771F881F1B
:1009A000991F1A9469F760957095809590959B01B1
:1009B000AC01BD01CF010895EE0FFF1F0590F4912A
:1009C000E02D09940F931F93CF93DF93823091050D
:1009D00010F482E090E0E091D701F091D80120E09E
:1009E00030E0A0E0B0E0309719F140815181028100
:1009F000138148175907C8F08417950769F41097B1
:100A000031F012960C93129713961C9327C0009303
:100A1000D7011093D80122C02115310519F04217D2
:100A2000530718F49A01BD01EF01DF01F801DBCF94
:100A300021153105F9F0281B390B2430310580F4DC
:100A40008A819B816115710521F0FB01938382836B
:100A500004C09093D8018093D701FE01329644C020
:100A6000FE01E20FF31F81939193225031093983E4
:100A700028833AC02091D5013091D601232B41F42F
:100A800020910201309103013093D6012093D501CA
:100A900020910001309101012115310541F42DB75C
:100AA0003EB74091040150910501241B350BE091A4
:100AB000D501F091D601E217F307A0F42E1B3F0BEE
:100AC0002817390778F0AC014E5F5F4F24173507C0
:100AD00048F04E0F5F1F5093D6014093D50181938C
:100AE000919302C0E0E0F0E0CF01DF91CF911F9140
:100AF0000F910895CF93DF93009709F481C0FC0113
:100B0000329713821282A091D701B091D801109729
:100B100081F420813181820F931F2091D501309182
:100B2000D6012817390751F5F093D601E093D50186
:100B300067C0ED0120E030E0CE17DF0740F44A81C6
:100B40005B819E0141155105F1F0EA01F5CFD38398
:100B5000C28340815181840F951FC817D90759F46A
:100B600088819981840F951F0296918380838A8161
:100B70009B81938382832115310529F4F093D80159
:100B8000E093D7013DC0E901FB83EA834991599184
:100B9000C40FD51FEC17FD0761F480819181840F8C
:100BA000951F0296E90199838883828193819B83B3
:100BB0008A83E0E0F0E012968D919C911397009764
:100BC00019F0FD01DC01F7CF8D919C9111979D01EA
:100BD0002E5F3F4F820F931F2091D5013091D60198
:100BE0002817390769F4309729F41092D801109228
:100BF000D70102C013821282B093D601A093D5010F
:100C0000DF91CF910895A0E0B0E0E9E0F6E00C9428
:100C10008704EC01009721F4CB010E94E204B4C0E8
:100C2000FC01E60FF71F9C0122503109E217F30780
:100C300008F4A8C0D9010D911C9111970617170748
:100C4000B0F00530110508F49BC0C8010497861761
:100C5000970708F495C002501109061B170B019362
:100C600011936D937C93CF010E947A0589C05B013B
:100C7000A01AB10A4C01800E911EA091D701B0912B
:100C8000D801612C712CE12CF12C109709F446C08D
:100C90008D919C911197A815B905B1F56C0142E0B1
:100CA000C40ED11CCA14DB0478F14C018A189B08CD
:100CB000640142E0C40ED11C1296BC9012971396A8
:100CC000AC91B5E0CB16D10440F0B282A3839182FF
:100CD0008082D9016D937C9309C00E5F1F4F800FF6
:100CE000911FF90191838083EB2DFA2FE114F10418
:100CF00031F0D7011396FC93EE93129741C0F09315
:100D0000D801E093D7013CC06816790608F43C018D
:100D10007D0112960D90BC91A02DB7CF8091D50189
:100D20009091D60188169906E1F466167706C8F404
:100D30008091000190910101009741F48DB79EB719
:100D40004091040150910501841B950BE817F907A8
:100D5000C8F4F093D601E093D501F9017183608363
:100D60000FC0CB010E94E2047C01009759F0A8015A
:100D7000BE010E94CE06CE010E947A05C70104C0C2
:100D8000CE0102C080E090E0CDB7DEB7EEE00C947B
:100D9000A30481E090E0F8940C940707FB01DC01C8
:100DA00002C001900D9241505040D8F70895FB01C8
:100DB000DC0101900D920020E1F70895FB01DC01B8
:100DC0004150504048F001900D920020C9F701C0F9
:100DD0001D9241505040E0F70895FB015191552379
:100DE000A9F0BF01DC014D9145174111E1F759F41C
:100DF000CD010190002049F04D9140154111C9F3FA
:100E0000FB014111EFCF81E090E001970895F89444
:020E1000FFCF12
:100E12000000D9018000000000001B018400B20024
:100E22006801E300C100D5003F065B4F666D7D0798
:0E0E32007F6F322E322E332E332E000D0A002B
:107E0000112484B714BE81FFF0D085E080938100F7
:107E100082E08093C00088E18093C10086E0809377
:107E2000C20080E18093C4008EE0C9D0259A86E02C
:107E300020E33CEF91E0309385002093840096BBD3
:107E4000B09BFECF1D9AA8958150A9F7CC24DD24C4
:107E500088248394B5E0AB2EA1E19A2EF3E0BF2EE7
:107E6000A2D0813461F49FD0082FAFD0023811F036
:107E7000013811F484E001C083E08DD089C08234E0
:107E800011F484E103C0853419F485E0A6D080C0E4
:107E9000853579F488D0E82EFF2485D0082F10E0AE
:107EA000102F00270E291F29000F111F8ED06801E7
:107EB0006FC0863521F484E090D080E0DECF843638
:107EC00009F040C070D06FD0082F6DD080E0C81688
:107ED00080E7D80618F4F601B7BEE895C0E0D1E017
:107EE00062D089930C17E1F7F0E0CF16F0E7DF06D8
:107EF00018F0F601B7BEE89568D007B600FCFDCFD4
:107F0000A601A0E0B1E02C9130E011968C91119780
:107F100090E0982F8827822B932B1296FA010C0160
:107F200087BEE89511244E5F5F4FF1E0A038BF0790
:107F300051F7F601A7BEE89507B600FCFDCF97BE46
:107F4000E89526C08437B1F42ED02DD0F82E2BD052
:107F50003CD0F601EF2C8F010F5F1F4F84911BD097
:107F6000EA94F801C1F70894C11CD11CFA94CF0C13
:107F7000D11C0EC0853739F428D08EE10CD085E9AC
:107F80000AD08FE07ACF813511F488E018D01DD067
:107F900080E101D065CF982F8091C00085FFFCCF94
:107FA0009093C60008958091C00087FFFCCF809118
:107FB000C00084FD01C0A8958091C6000895E0E648
:107FC000F0E098E1908380830895EDDF803219F02E
:107FD00088E0F5DFFFCF84E1DECF1F93182FE3DFCA
:107FE0001150E9F7F2DF1F91089580E0E8DFEE27F6
:047FF000FF270994CA
:027FFE00040479
:0400000300007E007B
:00000001FF
