:1000000008C1000035C1000033C1000031C100004B
:100010002FC100002DC100002BC1000029C100002C
:1000200027C1000025C1000023C1000021C100003C
:100030001FC100001DC100001BC1000019C100004C
:1000400017C10000C7C5000013C1000011C10000A6
:100050000FC100000DC100000BC1000012C500005F
:1000600007C1000081C5000056C5000001C10000A5
:10007000FFC00000FDC00000FBC00000F9C0000090
:10008000F7C00000F5C00000F3C00000F1C00000A0
:10009000EFC00000EDC00000EBC00000E9C00000B0
:1000A000E7C00000E5C00000E3C00000E1C00000C0
:1000B000DFC00000DDC00000DBC00000D9C00000D0
:1000C000D7C00000D5C00000D3C00000D1C00000E0
:1000D000CFC00000CDC00000CBC00000C9C00000F0
:1000E000C7C0000063016601550159015D019D0112
:1000F0006A016E01740178017C01820186018A0126
:100100009D01900194019801000021002400270026
:100110002A002D0030003300010100000401070116
:100120000A0100002200250028002B002E003100CB
:10013000340002010000050108010B010505050559
:10014000070508080808020202020A0A080804044F
:10015000040401010101010101010303030303037D
:100160000303040707070C0C0C0C0C0C0C0C02020C
:10017000020206060606060606060B0B0B0B0B0B09
:100180000B0B010210202008081020401020408096
:10019000020102010804020101020408102040804B
:1001A00080402010080402018004020180402010D9
:1001B0000804020108040201010204081020408022
:1001C000010204081020408000000A0B02090C0DF7
:1001D0000E080703040100000000000000000000FA
:1001E000000000000000000000000000000000000F
:1001F00000000000121110000000000000000000CC
:1002000000000000000000000000000000003D06AB
:100210009C0811241FBECFEFD1E2DEBFCDBF00E0AE
:100220000CBF23E0A6E2B2E001C01D92A530B207E8
:10023000E1F712E0A0E0B2E0EEE3F6E100E00BBF90
:1002400002C007900D92A632B107D9F711E0C8E0BD
:10025000D1E000E005C021970109802FFE0198D769
:10026000C730D10780E00807B1F741D50C940E0BD9
:10027000C7CE382FECEDF1E04491E6E9F1E02491AE
:10028000E0E5F1E09491992309F46BC0442309F46B
:1002900054C050E0FA013197E231F10508F04DC049
:1002A0008827EE58FF4F8F4F73C7809180008F775C
:1002B00007C0809180008F7D03C080918000877F80
:1002C000809380003AC084B58F7702C084B58F7D5B
:1002D00084BD33C08091B0008F7703C08091B0009F
:1002E0008F7D8093B00029C0809190008F7707C0E8
:1002F000809190008F7D03C080919000877F8093D4
:1003000090001BC08091A0008F7707C08091A00053
:100310008F7D03C08091A000877F8093A0000DC0D7
:10032000809120018F7707C0809120018F7D03C0CD
:1003300080912001877F80932001E92FF0E0EE0F6C
:10034000FF1FEE5DFE4FA591B4919FB7F894311158
:1003500004C08C912095282302C0EC912E2B2C9365
:100360009FBF0895CF93DF9390E0FC01EE57FE4FBF
:100370002491FC01E45CFE4F8491882361F190E0BC
:10038000880F991FFC01E85FFE4FC591D491FC01D5
:10039000EE5DFE4FA591B491611109C09FB7F8942D
:1003A0008881209582238883EC912E230BC06230B4
:1003B00061F49FB7F8948881322F30958323888326
:1003C000EC912E2B2C939FBF06C08FB7F894E88139
:1003D0002E2B28838FBFDF91CF9108953FB7F894DC
:1003E00080915A0290915B02A0915C02B0915D02F3
:1003F00026B5A89B05C02F3F19F00196A11DB11D80
:100400003FBFBA2FA92F982F8827820F911DA11DBA
:10041000B11DBC01CD0142E0660F771F881F991FF7
:100420004A95D1F708950895CF92DF92EF92FF9207
:100430000F931F93CF93DF936C017A018B01C0E080
:10044000D0E0CE15DF0581F0D8016D918D01D60188
:10045000ED91FC910190F081E02DC6011995892B59
:1004600011F02196EECF7E01C701DF91CF911F9150
:100470000F91FF90EF90DF90CF90089580E090E093
:100480000895FC01538D448D252F30E0842F90E09A
:10049000821B930B541710F0CF960895019708957F
:1004A000FC01918D828D981761F0828DDF01A80F7C
:1004B000B11D5D968C91928D9F5F9F73928F90E09E
:1004C00008958FEF9FEF0895FC01918D828D98170D
:1004D00031F0828DE80FF11D858D90E008958FEF4A
:1004E0009FEF0895FC01918D228D892F90E0805C13
:1004F0009F4F821B91098F73992708958EE592E093
:10050000F1DF21E0892B09F420E0822F0895FC011E
:10051000848DDF01A80FB11DA35ABF4F2C91848D8C
:1005200090E001968F739927848FA689B7892C93C1
:10053000A089B1898C91837080648C93938D848D14
:10054000981306C00288F389E02D80818F7D808317
:100550000895EF92FF920F931F93CF93DF93EC01D7
:1005600081E0888F9B8D8C8D981305C0E889F9896F
:10057000808185FD25C0F62E0B8D10E00F5F1F4F8B
:100580000F731127E02E8C8DE8120BC00FB607FCFD
:10059000FACFE889F989808185FFF5CFCE01B7DFF1
:1005A000F2CF8B8DFE01E80FF11DE35AFF4FF08271
:1005B0009FB7F8940B8FEA89FB89808180620AC01B
:1005C0009FB7F894EE89FF896083E889F989808173
:1005D0008370806480839FBF81E090E0DF91CF9142
:1005E0001F910F91FF90EF900895CF93DF93EC014F
:1005F000888D8823C1F0EA89FB89808185FD05C04B
:10060000A889B9898C9186FD0EC00FB607FCF5CF7D
:10061000808185FFF2CFA889B9898C9185FFEDCFC4
:10062000CE0175DFE8CFDF91CF91089580E090E0B3
:10063000892B19F063DF811125C080E090E0892BC0
:1006400041F080E090E0892B21F00E9400008111B0
:100650001CC080E090E0892B41F080E090E0892B85
:1006600021F00E940000811113C080E090E0892BEE
:10067000A1F080E090E0892B81F00E9400008111C0
:100680000AC008950E940000D8CF0E940000E1CF68
:100690000E940000EACF0C9400000895CF93DF93EE
:1006A000EC0188819981009709F012D6198218828D
:1006B0001D821C821B821A82DF91CF910895FC015A
:1006C0008081918105C66DD70F931F93CF93DF93E0
:1006D000EC0188819981009729F02A813B812617B6
:1006E000370780F48B016F5F7F4F7BD6009761F0F7
:1006F000998388831B830A832C813D81232B11F4EA
:10070000FC01108281E001C080E0DF91CF911F9158
:100710000F910895EF92FF920F931F93CF93DF9362
:100720006115710511F480E01AC041155105B1F051
:100730007B01EC018C819D818A01080F191FB80192
:10074000CE01C2DF882379F3288139818C819D8194
:10075000B701820F931F32D71D830C8381E0DF9195
:10076000CF911F910F91FF90EF900895CF93DF935A
:10077000EC01FB014481558160817181CBDF8111E6
:1007800002C0CE018BDFCE01DF91CF910895EF92B1
:10079000FF920F931F93CF93DF93EC017B018A01AC
:1007A000BA0192DF811103C0CE0178DF06C01D833C
:1007B0000C83B7018881998101D7CE01DF91CF9158
:1007C0001F910F91FF90EF900895EF92FF920F937A
:1007D0001F93CF93DF93CDB7DEB729970FB6F89469
:1007E000DEBF0FBECDBF8C01862FF80111821082B3
:1007F00013821282158214824AE09E012F5F3F4FBE
:100800007901B90190E09BD4F70101900020E9F74C
:100810003197AF014E195F09B701C801B8DF2996BA
:100820000FB6F894DEBF0FBECDBFDF91CF911F9101
:100830000F91FF90EF900895CF93DF931F921F9237
:10084000CDB7DEB7FC0111821082138212821582AD
:10085000148220E329831A82BE016F5F7F4FFB0160
:1008600001900020E9F73197AF01461B570B8FDF4E
:100870000F900F90DF91CF910895FB01DC0111964D
:100880001C921E9213961C921E92129715961C9201
:100890001E9214978617970741F060817181611548
:1008A000710519F04481558172CF0895EF92FF923E
:1008B0000F931F93CF93DF93CDB7DEB7AA970FB6F1
:1008C000F894DEBF0FBECDBF162F072F682FCE01C5
:1008D0006A3020F0019679DFF12C20C0859675DF13
:1008E000CE014F96A9DFBE016B5D7F4FCE014F96C3
:1008F0003DDF7C018EE289831A8241E050E0BE0137
:100900006F5F7F4FC70106DF811102C0C701C6DEDE
:10091000B701CE010196B1DFFF24F3948091FB0271
:100920009091FC02009739F069817A816115710517
:1009300009F088C0CDD489819A819093FC0280937C
:10094000FB028B819C819093FE028093FD028D813E
:100950009E81909300038093FF021A8219821C8269
:100960001B821E821D82CE010196A9DEFF2031F07E
:10097000CE014F96A4DECE018596A1DE602FCE017A
:100980000A3020F0019621DF00E01FC049961DDFEC
:10099000CE01439651DFBE01675E7F4FCE01439685
:1009A000E5DE7C018EE289831A8241E050E0BE01DF
:1009B0006F5F7F4FC701AEDE811102C0C7016EDEDF
:1009C000B701CE01019659DF01E04D815E81698159
:1009D0007A818BEF92E09EDECE01019670DE0023DD
:1009E00031F0CE0143966BDECE01499668DE612F71
:1009F000CE011A3020F00D96E8DE10E010C0079608
:100A0000E4DECE01019618DFBE01695F7F4FCE01A3
:100A10000196ACDEBC01CE010D962FDF11E04989B5
:100A20005A896D857E858BEF92E074DECE010D963E
:100A300046DE1123C9F0CE01019641DECE010796B4
:100A40003EDE12C04091FD025091FE022D813E819A
:100A50004217530708F46ECFB1D58D819E819093D4
:100A600000038093FF027DCFAA960FB6F894DEBFF5
:100A70000FBECDBFDF91CF911F910F91FF90EF90EF
:100A800008951F920F920FB60F9211242F933F9348
:100A90008F939F93AF93BF9380915602909157028B
:100AA000A0915802B09159023091550223E0230FD2
:100AB0002D3720F40196A11DB11D05C026E8230F96
:100AC0000296A11DB11D209355028093560290936A
:100AD0005702A0935802B093590280915A02909104
:100AE0005B02A0915C02B0915D020196A11DB11D57
:100AF00080935A0290935B02A0935C02B0935D02D4
:100B0000BF91AF919F918F913F912F910F900FBE09
:100B10000F901F9018951F920F920FB60F921124ED
:100B20000BB60F922F933F934F935F936F937F93E7
:100B30008F939F93AF93BF93EF93FF938EE592E0D4
:100B4000E6DCFF91EF91BF91AF919F918F917F91E3
:100B50006F915F914F913F912F910F900BBE0F902E
:100B60000FBE0F901F9018951F920F920FB60F9205
:100B700011240BB60F922F938F939F93EF93FF93B4
:100B8000E0916E02F0916F028081E0917402F09129
:100B9000750282FD12C09081809177028F5F8F7302
:100BA00020917802821751F0E0917702F0E0E25A4A
:100BB000FD4F958F8093770201C08081FF91EF9167
:100BC0009F918F912F910F900BBE0F900FBE0F90A2
:100BD0001F9018951F920F920FB60F9211240BB60B
:100BE0000F922F933F934F935F936F937F938F93C6
:100BF0009F93AF93BF93EF93FF938091480281112E
:100C000029C0809147028823F1F0809152028F5FC2
:100C10008C3319F08093520216C0109252028091C8
:100C200053028F5F8C3319F0809353020CC01092E3
:100C30005302809154028F5F883119F080935402DF
:100C400002C010925402609152027091530280913E
:100C500054022CDEFF91EF91BF91AF919F918F9144
:100C60007F916F915F914F913F912F910F900BBEAC
:100C70000F900FBE0F901F901895EEE5F2E01382D3
:100C8000128288EE93E0A0E0B0E084839583A6838F
:100C9000B78385E192E09183808385EC90E095872E
:100CA000848784EC90E09787868780EC90E0918B36
:100CB000808B81EC90E0938B828B82EC90E0958B23
:100CC000848B86EC90E0978B868B118E128E138E20
:100CD000148EEBEFF2E011821082138212821582E1
:100CE000148240E050E064E272E0CF0150CDCF9337
:100CF000DF93CDB7DEB768970FB6F894DEBF0FBEAF
:100D0000CDBF789484B5826084BD84B5816084BD94
:100D100085B5826085BD85B5816085BD80916E0099
:100D2000816080936E0010928100809181008260CA
:100D30008093810080918100816080938100809107
:100D400080008160809380008091B10084608093F6
:100D5000B1008091B00081608093B00080919100DB
:100D600082608093910080919100816080939100D6
:100D7000809190008160809390008091A1008260BA
:100D80008093A1008091A10081608093A100809157
:100D9000A00081608093A0008091210182608093F7
:100DA00021018091210181608093210180912001A6
:100DB00081608093200180917A00846080937A0022
:100DC00080917A00826080937A0080917A008160BD
:100DD00080937A0080917A00806880937A001092E4
:100DE000C100F894109280008DE08093810082E031
:100DF00080936F0028E03DE33093890020938800C2
:100E000078949FEF97B918B891B912B89FE094B948
:100E100090EF95B9E0916E02F0916F028083E091BE
:100E20006A02F0916B021082E0916C02F0916D0207
:100E30008FEC808310927602E0917202F09173023F
:100E400086E08083E0917002F09171028081806180
:100E50008083E0917002F0917102808188608083CC
:100E6000E0917002F0917102808180688083E0914E
:100E70007002F091710280818F7D808362E085E352
:100E800071DA62E084E36EDA62E083E36BDA62E0F7
:100E900082E368DA61E084E165DA56E0D52E7E010E
:100EA00027E0E20EF11C6BEF72E0CE014396E5DC29
:100EB000BE016D5E7F4FCE010D96DFDCF7012D2D5B
:100EC00011922A95E9F740E8B42E1A8219821C8201
:100ED0001B821E821D8241E050E063E272E0CE017F
:100EE000019655DC89899A89892B61F08D849E84CD
:100EF00069817A81C40178D3009721F08C010819A7
:100F0000190902C00FEF1FEFCE010196D8DB0F3F8A
:100F10008FEF180721F149895A8904171507B8F48A
:100F20008D859E85415051095A8B498B401B510B31
:100F3000B8016F5F7F4F680F791F800F911F45D3F6
:100F4000ED85FE8589899A89E80FF91F1082E6E010
:100F5000F0E0EC0FFD1FE00FF11FB082B6CFA988C3
:100F6000BA88E8E0AE16B1040CF040C08FE788B94B
:100F7000850101501109812C912C8A149B04B4F530
:100F800089899A890817190720F4ED85FE8530971D
:100F900029F410922602E6E2F2E002C0E00FF11F0F
:100FA000E0810E2E000CFF0BE952FE4F9081F701FD
:100FB000E00FF11F8081892B82B910DA2B013C01EF
:100FC0000DDADC01CB0184199509A609B709883E21
:100FD0009340A105B105A0F388B18695805888B9E2
:100FE000FFEF8F1A9F0A01501109C7CFCE010D964E
:100FF00066DBCE01439663DB809152028B3311F4A2
:1010000081E002C0811101C034D980914A0281116E
:1010100006C083B18093490281E080934A0213B1F4
:101020001F3F09F085C0809149028E3F29F58091CC
:101030004802882319F0109248027AC08091000279
:10104000823020F48F5F8093000202C01092000271
:1010500080910002811104C081E08093470268C042
:10106000813019F41092470263C01092520210921C
:101070005302109254025CC08D3F01F580914802EA
:10108000811156C020914602822F90E0FC01EE0FA4
:10109000FF1F8E0F9F1FFC01E85DFD4F80915202E4
:1010A00090915302A091540280839183A2832A30AD
:1010B00008F03EC02F5F209346023AC08B3F39F4C0
:1010C00080914802811134C01092460231C0873F9E
:1010D00079F580914702811107C0809146028823EB
:1010E00019F081E08093480280914802882301F141
:1010F0008091270290E0FC01EE0FFF1F8E0F9F1FD3
:10110000FC01E85DFD4F608171818281CFDB209120
:101110002702422F50E08091460290E00197481745
:10112000590724F42F5F2093270202C01092270250
:10113000109349027BDAB7CE8BEF92E0C0CABB278F
:10114000FB015527AA27880F991FAA1FA41710F083
:10115000A41B83955051B9F7A05DAA3308F0A95D8F
:10116000A193009779F7B111B1931192CB0100C00F
:10117000DC01FC01672F71917723E1F7329704C0FE
:101180007C916D9370836291AE17BF07C8F3089589
:10119000EE0FFF1F881F8BBF0790F691E02D19946B
:1011A0000F931F93CF93DF938230910510F482E069
:1011B00090E0E0910303F091040320E030E0A0E030
:1011C000B0E0309719F140815181028113814817B5
:1011D0005907C8F08417950769F4109731F01296F3
:1011E0000C93129713961C9327C00093030310933C
:1011F000040322C02115310519F04217530718F4D2
:101200009A01BD01EF01DF01F801DBCF21153105A6
:10121000F9F0281B390B2430310580F48A819B8139
:101220006115710521F0FB019383828304C09093C3
:10123000040380930303FE01329644C0FE01E20FD3
:10124000F31F8193919322503109398328833AC047
:101250002091010330910203232B41F420910302DA
:101260003091040230930203209301032091010284
:10127000309102022115310541F42DB73EB740915E
:10128000050250910602241B350BE0910103F091F9
:101290000203E217F307A0F42E1B3F0B28173907B0
:1012A00078F0AC014E5F5F4F2417350748F04E0FC2
:1012B0005F1F50930203409301038193919302C0F7
:1012C000E0E0F0E0CF01DF91CF911F910F91089501
:1012D000CF93DF93009709F481C0FC01329713820A
:1012E0001282A0910303B0910403109781F420812E
:1012F0003181820F931F209101033091020328173F
:10130000390751F5F0930203E093010367C0ED0143
:1013100020E030E0CE17DF0740F44A815B819E0178
:1013200041155105F1F0EA01F5CFD383C283408125
:101330005181840F951FC817D90759F48881998165
:10134000840F951F0296918380838A819B8193836A
:1013500082832115310529F4F0930403E0930303FC
:101360003DC0E901FB83EA8349915991C40FD51F20
:10137000EC17FD0761F480819181840F951F02961F
:10138000E90199838883828193819B838A83E0E04A
:10139000F0E012968D919C911397009719F0FD0142
:1013A000DC01F7CF8D919C9111979D012E5F3F4FEE
:1013B000820F931F209101033091020328173907F0
:1013C00069F4309729F4109204031092030302C0C9
:1013D00013821282B0930203A0930103DF91CF9195
:1013E00008956F927F928F929F92AF92BF92CF9209
:1013F000DF92EF92FF920F931F93CF93DF930097AB
:1014000081F4CB01DF91CF911F910F91FF90EF906D
:10141000DF90CF90BF90AF909F908F907F906F9014
:10142000BFCEFC01E60FF71F9C0122503109E217E5
:10143000F30708F4A5C0EC01D9010D911C91119797
:1014400006171707A8F00530110508F497C0C80162
:1014500004978617970708F491C002501109061BDC
:10146000170B019311936D937C93CF0131DF86C0ED
:101470005B01A01AB10A4C01800E911EA0910303DA
:10148000B0910403612C712CE12CF12C109709F41C
:1014900046C08D919C911197A815B905B1F56C01C5
:1014A00042E0C40ED11CCA14DB0478F14C018A1846
:1014B0009B08640142E0C40ED11C1296BC901297A6
:1014C0001396AC91B5E0CB16D10440F0B282A38361
:1014D00091828082D9016D937C9309C00E5F1F4F6A
:1014E000800F911FF90191838083EB2DFA2FE11476
:1014F000F10431F0D7011396FC93EE9312973EC09E
:10150000F0930403E093030339C06816790608F4E6
:101510003C017D0112960D90BC91A02DB7CF80911A
:1015200001039091020388169906E1F46616770686
:10153000C8F48091010290910202009741F48DB7A6
:101540009EB74091050250910602841B950BE81747
:10155000F907B0F4F0930203E0930103F9017183FA
:1015600060830CC0CB011CDE7C01009749F0A80110
:10157000BE011BD0CE01ACDEC70104C0CE0102C04B
:1015800080E090E0DF91CF911F910F91FF90EF905D
:10159000DF90CF90BF90AF909F908F907F906F9093
:1015A000089581E090E0F89439C0FB01DC0102C0AD
:1015B00001900D9241505040D8F70895FB01DC0195
:1015C00001900D920020E1F70895FB01DC014150EC
:1015D000504048F001900D920020C9F701C01D92C3
:1015E00041505040E0F70895FB0151915523A9F077
:1015F000BF01DC014D9145174111E1F759F4CD01CF
:101600000190002049F04D9140154111C9F3FB01B3
:101610004111EFCF81E090E00197089511E0C8E01B
:10162000D1E000E005C0802FFE01B2DD2196011D52
:0E163000C930D10780E00807B1F7F894FFCF6A
:10163E00020000050380003F065B4F666D7D077F4D
:10164E006F00000000A90214024102F5027202505E
:06165E000264022E0000F0
:00000001FF
